{
  "contractName": "SmartDistribution",
  "abi": [
    {
      "constant": true,
      "inputs": [
        {
          "name": "",
          "type": "address"
        },
        {
          "name": "",
          "type": "address"
        }
      ],
      "name": "alreadSendBalance",
      "outputs": [
        {
          "name": "",
          "type": "uint256"
        }
      ],
      "payable": false,
      "stateMutability": "view",
      "type": "function"
    },
    {
      "constant": true,
      "inputs": [],
      "name": "totalSupply",
      "outputs": [
        {
          "name": "",
          "type": "uint256"
        }
      ],
      "payable": false,
      "stateMutability": "view",
      "type": "function"
    },
    {
      "constant": false,
      "inputs": [
        {
          "name": "token",
          "type": "address"
        }
      ],
      "name": "claim",
      "outputs": [],
      "payable": false,
      "stateMutability": "nonpayable",
      "type": "function"
    },
    {
      "constant": false,
      "inputs": [
        {
          "name": "token",
          "type": "address"
        },
        {
          "name": "ads",
          "type": "address"
        }
      ],
      "name": "claimTo",
      "outputs": [],
      "payable": false,
      "stateMutability": "nonpayable",
      "type": "function"
    },
    {
      "constant": true,
      "inputs": [
        {
          "name": "",
          "type": "uint256"
        }
      ],
      "name": "supportTokens",
      "outputs": [
        {
          "name": "",
          "type": "address"
        }
      ],
      "payable": false,
      "stateMutability": "view",
      "type": "function"
    },
    {
      "constant": true,
      "inputs": [
        {
          "name": "",
          "type": "uint256"
        }
      ],
      "name": "addressList",
      "outputs": [
        {
          "name": "",
          "type": "address"
        }
      ],
      "payable": false,
      "stateMutability": "view",
      "type": "function"
    },
    {
      "constant": false,
      "inputs": [],
      "name": "claimAll",
      "outputs": [],
      "payable": false,
      "stateMutability": "nonpayable",
      "type": "function"
    },
    {
      "constant": true,
      "inputs": [
        {
          "name": "",
          "type": "address"
        }
      ],
      "name": "balance",
      "outputs": [
        {
          "name": "",
          "type": "uint256"
        }
      ],
      "payable": false,
      "stateMutability": "view",
      "type": "function"
    },
    {
      "constant": false,
      "inputs": [
        {
          "name": "t",
          "type": "address"
        }
      ],
      "name": "support",
      "outputs": [
        {
          "name": "",
          "type": "bool"
        }
      ],
      "payable": false,
      "stateMutability": "nonpayable",
      "type": "function"
    },
    {
      "constant": true,
      "inputs": [
        {
          "name": "",
          "type": "address"
        }
      ],
      "name": "tokenBalance",
      "outputs": [
        {
          "name": "total",
          "type": "uint256"
        },
        {
          "name": "balance",
          "type": "uint256"
        }
      ],
      "payable": false,
      "stateMutability": "view",
      "type": "function"
    },
    {
      "inputs": [
        {
          "name": "_as",
          "type": "address[]"
        },
        {
          "name": "_bs",
          "type": "uint256[]"
        }
      ],
      "payable": false,
      "stateMutability": "nonpayable",
      "type": "constructor"
    },
    {
      "payable": true,
      "stateMutability": "payable",
      "type": "fallback"
    }
  ],
  "bytecode": "0x6060604052341561000f57600080fd5b604051610e3b380380610e3b83398101604052808051820191906020018051820191905050600080835111151561004557600080fd5b8151835114151561005557600080fd5b600090505b825181101561011157818181518110151561007157fe5b90602001906020020151600080858481518110151561008c57fe5b9060200190602002015173ffffffffffffffffffffffffffffffffffffffff1673ffffffffffffffffffffffffffffffffffffffff1681526020019081526020016000206000828254019250508190555081818151811015156100eb57fe5b90602001906020020151600260008282540192505081905550808060010191505061005a565b8260019080519060200190610127929190610130565b505050506101fd565b8280548282559060005260206000209081019282156101a9579160200282015b828111156101a85782518260006101000a81548173ffffffffffffffffffffffffffffffffffffffff021916908373ffffffffffffffffffffffffffffffffffffffff16021790555091602001919060010190610150565b5b5090506101b691906101ba565b5090565b6101fa91905b808211156101f657600081816101000a81549073ffffffffffffffffffffffffffffffffffffffff0219169055506001016101c0565b5090565b90565b610c2f8061020c6000396000f3006060604052600436106100a4576000357c0100000000000000000000000000000000000000000000000000000000900463ffffffff1680630be405701461010a57806318160ddd146101765780631e83409a1461019f57806334a1ca89146101d85780635339eac414610230578063b810fb4314610293578063d1058e59146102f6578063e3d670d71461030b578063e660cc0814610358578063eedc966a146103a9575b60008090505b600380549050811015610107576100fa6003828154811015156100c957fe5b906000526020600020900160009054906101000a900473ffffffffffffffffffffffffffffffffffffffff166103fd565b80806001019150506100aa565b50005b341561011557600080fd5b610160600480803573ffffffffffffffffffffffffffffffffffffffff1690602001909190803573ffffffffffffffffffffffffffffffffffffffff169060200190919050506104e2565b6040518082815260200191505060405180910390f35b341561018157600080fd5b610189610507565b6040518082815260200191505060405180910390f35b34156101aa57600080fd5b6101d6600480803573ffffffffffffffffffffffffffffffffffffffff169060200190919050506103fd565b005b34156101e357600080fd5b61022e600480803573ffffffffffffffffffffffffffffffffffffffff1690602001909190803573ffffffffffffffffffffffffffffffffffffffff1690602001909190505061050d565b005b341561023b57600080fd5b61025160048080359060200190919050506107d4565b604051808273ffffffffffffffffffffffffffffffffffffffff1673ffffffffffffffffffffffffffffffffffffffff16815260200191505060405180910390f35b341561029e57600080fd5b6102b46004808035906020019091905050610813565b604051808273ffffffffffffffffffffffffffffffffffffffff1673ffffffffffffffffffffffffffffffffffffffff16815260200191505060405180910390f35b341561030157600080fd5b610309610852565b005b341561031657600080fd5b610342600480803573ffffffffffffffffffffffffffffffffffffffff169060200190919050506109ed565b6040518082815260200191505060405180910390f35b341561036357600080fd5b61038f600480803573ffffffffffffffffffffffffffffffffffffffff16906020019091905050610a05565b604051808215151515815260200191505060405180910390f35b34156103b457600080fd5b6103e0600480803573ffffffffffffffffffffffffffffffffffffffff16906020019091905050610b8e565b604051808381526020018281526020019250505060405180910390f35b3073ffffffffffffffffffffffffffffffffffffffff166334a1ca8982336040518363ffffffff167c0100000000000000000000000000000000000000000000000000000000028152600401808373ffffffffffffffffffffffffffffffffffffffff1673ffffffffffffffffffffffffffffffffffffffff1681526020018273ffffffffffffffffffffffffffffffffffffffff1673ffffffffffffffffffffffffffffffffffffffff16815260200192505050600060405180830381600087803b15156104cb57600080fd5b6102c65a03f115156104dc57600080fd5b50505050565b6005602052816000526040600020602052806000526040600020600091509150505481565b60025481565b6000806000806000808673ffffffffffffffffffffffffffffffffffffffff1673ffffffffffffffffffffffffffffffffffffffff1681526020019081526020016000205411151561055e57600080fd5b600460008673ffffffffffffffffffffffffffffffffffffffff1673ffffffffffffffffffffffffffffffffffffffff1681526020019081526020016000209250600560008673ffffffffffffffffffffffffffffffffffffffff1673ffffffffffffffffffffffffffffffffffffffff16815260200190815260200160002060008573ffffffffffffffffffffffffffffffffffffffff1673ffffffffffffffffffffffffffffffffffffffff1681526020019081526020016000205491508160025484600001546000808873ffffffffffffffffffffffffffffffffffffffff1673ffffffffffffffffffffffffffffffffffffffff168152602001908152602001600020540281151561067057fe5b0403905060008111151561068357600080fd5b8473ffffffffffffffffffffffffffffffffffffffff1663a9059cbb85836000604051602001526040518363ffffffff167c0100000000000000000000000000000000000000000000000000000000028152600401808373ffffffffffffffffffffffffffffffffffffffff1673ffffffffffffffffffffffffffffffffffffffff16815260200182815260200192505050602060405180830381600087803b151561072e57600080fd5b6102c65a03f1151561073f57600080fd5b5050506040518051905050808201600560008773ffffffffffffffffffffffffffffffffffffffff1673ffffffffffffffffffffffffffffffffffffffff16815260200190815260200160002060008673ffffffffffffffffffffffffffffffffffffffff1673ffffffffffffffffffffffffffffffffffffffff168152602001908152602001600020819055505050505050565b6003818154811015156107e357fe5b90600052602060002090016000915054906101000a900473ffffffffffffffffffffffffffffffffffffffff1681565b60018181548110151561082257fe5b90600052602060002090016000915054906101000a900473ffffffffffffffffffffffffffffffffffffffff1681565b600080600091505b6001805490508210156109e957600090505b6003805490508110156109dc573073ffffffffffffffffffffffffffffffffffffffff166334a1ca896003838154811015156108a457fe5b906000526020600020900160009054906101000a900473ffffffffffffffffffffffffffffffffffffffff166001858154811015156108df57fe5b906000526020600020900160009054906101000a900473ffffffffffffffffffffffffffffffffffffffff166040518363ffffffff167c0100000000000000000000000000000000000000000000000000000000028152600401808373ffffffffffffffffffffffffffffffffffffffff1673ffffffffffffffffffffffffffffffffffffffff1681526020018273ffffffffffffffffffffffffffffffffffffffff1673ffffffffffffffffffffffffffffffffffffffff16815260200192505050600060405180830381600087803b15156109bb57600080fd5b6102c65a03f115156109cc57600080fd5b505050808060010191505061086c565b818060010192505061085a565b5050565b60006020528060005260406000206000915090505481565b6000806000600460008573ffffffffffffffffffffffffffffffffffffffff1673ffffffffffffffffffffffffffffffffffffffff16815260200190815260200160002091508373ffffffffffffffffffffffffffffffffffffffff166370a08231306000604051602001526040518263ffffffff167c0100000000000000000000000000000000000000000000000000000000028152600401808273ffffffffffffffffffffffffffffffffffffffff1673ffffffffffffffffffffffffffffffffffffffff168152602001915050602060405180830381600087803b1515610aee57600080fd5b6102c65a03f11515610aff57600080fd5b50505060405180519050905081600101548183600001540103826000018190555060038054806001018281610b349190610bb2565b9160005260206000209001600086909190916101000a81548173ffffffffffffffffffffffffffffffffffffffff021916908373ffffffffffffffffffffffffffffffffffffffff16021790555050600192505050919050565b60046020528060005260406000206000915090508060000154908060010154905082565b815481835581811511610bd957818360005260206000209182019101610bd89190610bde565b5b505050565b610c0091905b80821115610bfc576000816000905550600101610be4565b5090565b905600a165627a7a723058201be6f939362183f351a152b609325c68333bdedcdca0e5b2d3b7da7e52ec01400029",
  "source": "pragma solidity ^0.4.17;\n\nimport \"./Token.sol\";\n\ncontract SmartDistribution {\n\n    //地址期权余额\n    mapping(address => uint256) public balance;\n    //所有地址集合\n    address[] public addressList;\n    //期权总数\n    uint256 public totalSupply;\n    //支付的所有token\n    Token[] public supportTokens;\n    //token余额和总数\n    mapping(address => TokenBalance) public tokenBalance;\n\n\n    //地址期权余额\n    mapping(address => mapping(address => uint256)) public alreadSendBalance;\n\n    struct TokenBalance {\n        uint256 total;\n        uint256 balance;\n    }\n\n    function SmartDistribution(address[] _as, uint256[] _bs) public {\n        require(_as.length > 0);\n        require(_as.length == _bs.length);\n        for (uint i = 0; i < _as.length; i++) {\n            balance[_as[i]] += _bs[i];\n            totalSupply += _bs[i];\n        }\n        addressList = _as;\n    }\n\n    function support(Token t) public returns(bool) {\n        TokenBalance storage bal = tokenBalance[t];\n        uint256 nowBalance = t.balanceOf(this);\n        bal.total = bal.total + nowBalance - bal.balance;\n\n        supportTokens.push(t);\n        return true;\n    }\n\n    function claim(Token token) public {\n        this.claimTo(token, msg.sender);\n    }\n\n    function claimTo(Token token, address ads) public {\n        require(balance[ads] > 0);\n        TokenBalance storage bal = tokenBalance[token];\n        uint256 alreadSend = alreadSendBalance[token][ads];\n        uint256 val = ((balance[ads] * bal.total)/ totalSupply)  - alreadSend;\n        require(val > 0);\n        token.transfer(ads, val);\n        alreadSendBalance[token][ads] = alreadSend + val;\n\n    }\n\n\n    function() payable public {\n        for (uint i = 0; i < supportTokens.length; i++) {\n            claim(supportTokens[i]);\n        }\n    }\n\n    function claimAll() public {\n\n        for (uint i = 0; i < addressList.length; i++) {\n            for (uint j = 0; j < supportTokens.length; j++) {\n                this.claimTo(supportTokens[j],addressList[i]);\n            }\n        }\n\n    }\n\n}\n",
  "sourcePath": "/Users/yanghang/Workspace/eth/workspace/solidity/simpleToken/contracts/SmartDistribution.sol",
  "compiler": {
    "name": "solc",
    "version": "0.4.18+commit.9cf6e910.Emscripten.clang"
  },
  "schemaVersion": "1.0.1",
  "updatedAt": "2018-01-31T08:26:24.598Z"
}