{
  "contractName": "BlockRecharge",
  "abi": [
    {
      "constant": false,
      "inputs": [
        {
          "name": "_rate",
          "type": "uint256"
        }
      ],
      "name": "setRate",
      "outputs": [],
      "payable": false,
      "stateMutability": "nonpayable",
      "type": "function"
    },
    {
      "constant": true,
      "inputs": [],
      "name": "owner",
      "outputs": [
        {
          "name": "",
          "type": "address"
        }
      ],
      "payable": false,
      "stateMutability": "view",
      "type": "function"
    },
    {
      "constant": false,
      "inputs": [
        {
          "name": "newOwner",
          "type": "address"
        }
      ],
      "name": "transferOwnership",
      "outputs": [],
      "payable": false,
      "stateMutability": "nonpayable",
      "type": "function"
    },
    {
      "inputs": [],
      "payable": false,
      "stateMutability": "nonpayable",
      "type": "constructor"
    },
    {
      "anonymous": false,
      "inputs": [
        {
          "indexed": true,
          "name": "previousOwner",
          "type": "address"
        },
        {
          "indexed": true,
          "name": "newOwner",
          "type": "address"
        }
      ],
      "name": "OwnershipTransferred",
      "type": "event"
    }
  ],
  "bytecode": "0x6060604052341561000f57600080fd5b60008054600160a060020a033316600160a060020a03199091161781556001556101b78061003e6000396000f3006060604052600436106100565763ffffffff7c010000000000000000000000000000000000000000000000000000000060003504166334fcf437811461005b5780638da5cb5b14610073578063f2fde38b146100a2575b600080fd5b341561006657600080fd5b6100716004356100c1565b005b341561007e57600080fd5b6100866100e1565b604051600160a060020a03909116815260200160405180910390f35b34156100ad57600080fd5b610071600160a060020a03600435166100f0565b60005433600160a060020a039081169116146100dc57600080fd5b600155565b600054600160a060020a031681565b60005433600160a060020a0390811691161461010b57600080fd5b600160a060020a038116151561012057600080fd5b600054600160a060020a0380831691167f8be0079c531659141344cd1fd0a4f28419497f9722a3daafe3b4186f6b6457e060405160405180910390a36000805473ffffffffffffffffffffffffffffffffffffffff1916600160a060020a03929092169190911790555600a165627a7a7230582068172f1c52c8a469024a57f0e84ae6888f1c9f727cc0ef6a74d6974f3e49e0fd0029",
  "source": "pragma solidity ^0.4.18;\n\nimport 'zeppelin-solidity/contracts/ownership/Ownable.sol';\n\ncontract BlockRecharge is Ownable {\n\n  uint256 rate;\n\n  function BlockRecharge() public{\n      rate = 0;\n  }\n\n  function setRate(uint256 _rate) public onlyOwner{\n      rate = _rate;\n  }\n\n\n  function calcRate(uint256 amount) internal view onlyOwner returns(uint256 val) {\n      require(amount > 0);\n      val =  (amount * rate ) / 1000;\n  }\n}\n",
  "sourcePath": "/Users/yanghang/Workspace/eth/workspace/solidity/simpleToken/contracts/utils/BlockRecharge.sol",
  "compiler": {
    "name": "solc",
    "version": "0.4.18+commit.9cf6e910.Emscripten.clang"
  },
  "schemaVersion": "1.0.1",
  "updatedAt": "2018-03-13T15:15:10.614Z"
}