{
  "contractName": "HasNoTokens",
  "abi": [
    {
      "constant": false,
      "inputs": [
        {
          "name": "token",
          "type": "address"
        }
      ],
      "name": "reclaimToken",
      "outputs": [],
      "payable": false,
      "stateMutability": "nonpayable",
      "type": "function"
    },
    {
      "constant": true,
      "inputs": [],
      "name": "owner",
      "outputs": [
        {
          "name": "",
          "type": "address"
        }
      ],
      "payable": false,
      "stateMutability": "view",
      "type": "function"
    },
    {
      "constant": false,
      "inputs": [
        {
          "name": "from_",
          "type": "address"
        },
        {
          "name": "value_",
          "type": "uint256"
        },
        {
          "name": "data_",
          "type": "bytes"
        }
      ],
      "name": "tokenFallback",
      "outputs": [],
      "payable": false,
      "stateMutability": "nonpayable",
      "type": "function"
    },
    {
      "constant": false,
      "inputs": [
        {
          "name": "newOwner",
          "type": "address"
        }
      ],
      "name": "transferOwnership",
      "outputs": [],
      "payable": false,
      "stateMutability": "nonpayable",
      "type": "function"
    },
    {
      "anonymous": false,
      "inputs": [
        {
          "indexed": true,
          "name": "previousOwner",
          "type": "address"
        },
        {
          "indexed": true,
          "name": "newOwner",
          "type": "address"
        }
      ],
      "name": "OwnershipTransferred",
      "type": "event"
    }
  ],
  "bytecode": "0x606060405260008054600160a060020a033316600160a060020a03199091161790556102fa806100306000396000f3006060604052600436106100485763ffffffff60e060020a60003504166317ffc320811461004d5780638da5cb5b1461006e578063c0ee0b8a1461009d578063f2fde38b146100cc575b600080fd5b341561005857600080fd5b61006c600160a060020a03600435166100eb565b005b341561007957600080fd5b61008161019f565b604051600160a060020a03909116815260200160405180910390f35b34156100a857600080fd5b61006c60048035600160a060020a0316906024803591604435918201910135610048565b34156100d757600080fd5b61006c600160a060020a03600435166101ae565b6000805433600160a060020a0390811691161461010757600080fd5b81600160a060020a03166370a082313060006040516020015260405160e060020a63ffffffff8416028152600160a060020a039091166004820152602401602060405180830381600087803b151561015e57600080fd5b6102c65a03f1151561016f57600080fd5b505050604051805160005490925061019b9150600160a060020a0384811691168363ffffffff61024916565b5050565b600054600160a060020a031681565b60005433600160a060020a039081169116146101c957600080fd5b600160a060020a03811615156101de57600080fd5b600054600160a060020a0380831691167f8be0079c531659141344cd1fd0a4f28419497f9722a3daafe3b4186f6b6457e060405160405180910390a36000805473ffffffffffffffffffffffffffffffffffffffff1916600160a060020a0392909216919091179055565b82600160a060020a031663a9059cbb838360006040516020015260405160e060020a63ffffffff8516028152600160a060020a0390921660048301526024820152604401602060405180830381600087803b15156102a657600080fd5b6102c65a03f115156102b757600080fd5b5050506040518051905015156102c957fe5b5050505600a165627a7a72305820fb94442023c233e96eb1f70cd1806dc4ffdddfc6507e1597383a640ff5f7c2640029",
  "source": "pragma solidity ^0.4.18;\n\nimport \"./CanReclaimToken.sol\";\n\n\n/**\n * @title Contracts that should not own Tokens\n * @author Remco Bloemen <remco@2π.com>\n * @dev This blocks incoming ERC223 tokens to prevent accidental loss of tokens.\n * Should tokens (any ERC20Basic compatible) end up in the contract, it allows the\n * owner to reclaim the tokens.\n */\ncontract HasNoTokens is CanReclaimToken {\n\n /**\n  * @dev Reject all ERC223 compatible tokens\n  * @param from_ address The address that is transferring the tokens\n  * @param value_ uint256 the amount of the specified token\n  * @param data_ Bytes The data passed from the caller.\n  */\n  function tokenFallback(address from_, uint256 value_, bytes data_) external {\n    from_;\n    value_;\n    data_;\n    revert();\n  }\n\n}\n",
  "sourcePath": "zeppelin-solidity/contracts/ownership/HasNoTokens.sol",
  "compiler": {
    "name": "solc",
    "version": "0.4.18+commit.9cf6e910.Emscripten.clang"
  },
  "schemaVersion": "1.0.1",
  "updatedAt": "2018-02-27T12:26:00.727Z"
}