{
  "contractName": "owned",
  "abi": [
    {
      "constant": true,
      "inputs": [
        {
          "name": "sen",
          "type": "address"
        }
      ],
      "name": "isMaster",
      "outputs": [
        {
          "name": "",
          "type": "bool"
        }
      ],
      "payable": false,
      "stateMutability": "view",
      "type": "function"
    },
    {
      "inputs": [],
      "payable": false,
      "stateMutability": "nonpayable",
      "type": "constructor"
    }
  ],
  "bytecode": "0x6060604052341561000f57600080fd5b336000806101000a81548173ffffffffffffffffffffffffffffffffffffffff021916908373ffffffffffffffffffffffffffffffffffffffff1602179055506101178061005e6000396000f300606060405260043610603f576000357c0100000000000000000000000000000000000000000000000000000000900463ffffffff168063f720f80b146044575b600080fd5b3415604e57600080fd5b6078600480803573ffffffffffffffffffffffffffffffffffffffff169060200190919050506092565b604051808215151515815260200191505060405180910390f35b60008060009054906101000a900473ffffffffffffffffffffffffffffffffffffffff1673ffffffffffffffffffffffffffffffffffffffff168273ffffffffffffffffffffffffffffffffffffffff161490509190505600a165627a7a72305820e02722aff46300c6be5ab601bffe5e0274f493ba0d62e43978533bada3baa6f70029",
  "source": "pragma solidity ^0.4.18;\n\ncontract owned {\n    function owned() public {\n        owner = msg.sender;\n    }\n    modifier onlyowner() {\n        if (msg.sender == owner)\n            _;\n    }\n    function isMaster(address sen) public constant returns(bool){\n        return sen == owner;\n    }\n    address owner;\n}\n",
  "sourcePath": "/Users/yanghang/Workspace/eth/workspace/solidity/simpleToken/contracts/owned.sol",
  "compiler": {
    "name": "solc",
    "version": "0.4.18+commit.9cf6e910.Emscripten.clang"
  },
  "schemaVersion": "1.0.1",
  "updatedAt": "2018-02-24T10:19:48.853Z"
}