{
  "contractName": "owned",
  "abi": [
    {
      "constant": true,
      "inputs": [
        {
          "name": "sen",
          "type": "address"
        }
      ],
      "name": "isMaster",
      "outputs": [
        {
          "name": "",
          "type": "bool"
        }
      ],
      "payable": false,
      "stateMutability": "view",
      "type": "function"
    },
    {
      "inputs": [],
      "payable": false,
      "stateMutability": "nonpayable",
      "type": "constructor"
    }
  ],
  "bytecode": "0x6060604052341561000f57600080fd5b60008054600160a060020a033316600160a060020a031990911617905560cd8061003a6000396000f300606060405260043610603e5763ffffffff7c0100000000000000000000000000000000000000000000000000000000600035041663f720f80b81146043575b600080fd5b3415604d57600080fd5b606c73ffffffffffffffffffffffffffffffffffffffff600435166080565b604051901515815260200160405180910390f35b60005473ffffffffffffffffffffffffffffffffffffffff908116911614905600a165627a7a723058202517ebf3f9964af5ac92d30c7d220116134a86ddf627e07a22249a7eb683c30f0029",
  "source": "pragma solidity ^0.4.18;\n\ncontract owned {\n    function owned() public {\n        owner = msg.sender;\n    }\n    modifier onlyowner() {\n        if (msg.sender == owner)\n            _;\n    }\n    function isMaster(address sen) public constant returns(bool){\n        return sen == owner;\n    }\n    address owner;\n}\n",
  "sourcePath": "/Users/yanghang/Workspace/eth/workspace/solidity/simpleToken/contracts/owned.sol",
  "compiler": {
    "name": "solc",
    "version": "0.4.18+commit.9cf6e910.Emscripten.clang"
  },
  "schemaVersion": "1.0.1",
  "updatedAt": "2018-03-01T18:22:32.815Z"
}