{
  "contractName": "SimpleDistribution",
  "abi": [
    {
      "constant": false,
      "inputs": [
        {
          "name": "token",
          "type": "address"
        }
      ],
      "name": "reclaimToken",
      "outputs": [],
      "payable": false,
      "stateMutability": "nonpayable",
      "type": "function"
    },
    {
      "constant": false,
      "inputs": [
        {
          "name": "_rate",
          "type": "uint256"
        }
      ],
      "name": "setRate",
      "outputs": [],
      "payable": false,
      "stateMutability": "nonpayable",
      "type": "function"
    },
    {
      "constant": false,
      "inputs": [
        {
          "name": "_as",
          "type": "address[]"
        },
        {
          "name": "_bs",
          "type": "uint256[]"
        },
        {
          "name": "token",
          "type": "address"
        }
      ],
      "name": "distribution",
      "outputs": [
        {
          "name": "",
          "type": "bool"
        }
      ],
      "payable": false,
      "stateMutability": "nonpayable",
      "type": "function"
    },
    {
      "constant": true,
      "inputs": [],
      "name": "owner",
      "outputs": [
        {
          "name": "",
          "type": "address"
        }
      ],
      "payable": false,
      "stateMutability": "view",
      "type": "function"
    },
    {
      "constant": false,
      "inputs": [],
      "name": "reclaimEther",
      "outputs": [],
      "payable": false,
      "stateMutability": "nonpayable",
      "type": "function"
    },
    {
      "constant": false,
      "inputs": [
        {
          "name": "from_",
          "type": "address"
        },
        {
          "name": "value_",
          "type": "uint256"
        },
        {
          "name": "data_",
          "type": "bytes"
        }
      ],
      "name": "tokenFallback",
      "outputs": [],
      "payable": false,
      "stateMutability": "nonpayable",
      "type": "function"
    },
    {
      "constant": true,
      "inputs": [],
      "name": "blockVersion",
      "outputs": [
        {
          "name": "version",
          "type": "string"
        }
      ],
      "payable": false,
      "stateMutability": "view",
      "type": "function"
    },
    {
      "constant": false,
      "inputs": [
        {
          "name": "newOwner",
          "type": "address"
        }
      ],
      "name": "transferOwnership",
      "outputs": [],
      "payable": false,
      "stateMutability": "nonpayable",
      "type": "function"
    },
    {
      "inputs": [],
      "payable": false,
      "stateMutability": "nonpayable",
      "type": "constructor"
    },
    {
      "anonymous": false,
      "inputs": [
        {
          "indexed": true,
          "name": "_to",
          "type": "address"
        },
        {
          "indexed": true,
          "name": "_token",
          "type": "address"
        },
        {
          "indexed": false,
          "name": "_value",
          "type": "uint256"
        }
      ],
      "name": "Distr",
      "type": "event"
    },
    {
      "anonymous": false,
      "inputs": [
        {
          "indexed": true,
          "name": "_from",
          "type": "address"
        },
        {
          "indexed": true,
          "name": "_token",
          "type": "address"
        },
        {
          "indexed": false,
          "name": "_value",
          "type": "uint256"
        }
      ],
      "name": "Fee",
      "type": "event"
    },
    {
      "anonymous": false,
      "inputs": [
        {
          "indexed": true,
          "name": "previousOwner",
          "type": "address"
        },
        {
          "indexed": true,
          "name": "newOwner",
          "type": "address"
        }
      ],
      "name": "OwnershipTransferred",
      "type": "event"
    }
  ],
  "bytecode": "0x6060604052341561000f57600080fd5b60008054600160a060020a033316600160a060020a03199091161781556001556108598061003e6000396000f3006060604052600436106100745763ffffffff60e060020a60003504166317ffc320811461007957806334fcf4371461009a578063469d544d146100b05780638da5cb5b1461015e5780639f727c271461018d578063c0ee0b8a146101a0578063cce0cd0c146101cf578063f2fde38b14610259575b600080fd5b341561008457600080fd5b610098600160a060020a0360043516610278565b005b34156100a557600080fd5b61009860043561032c565b34156100bb57600080fd5b61014a60046024813581810190830135806020818102016040519081016040528093929190818152602001838360200280828437820191505050505050919080359060200190820180359060200190808060200260200160405190810160405280939291908181526020018383602002808284375094965050509235600160a060020a0316925061034c915050565b604051901515815260200160405180910390f35b341561016957600080fd5b61017161058f565b604051600160a060020a03909116815260200160405180910390f35b341561019857600080fd5b61009861059e565b34156101ab57600080fd5b61009860048035600160a060020a0316906024803591604435918201910135610074565b34156101da57600080fd5b6101e26105f1565b60405160208082528190810183818151815260200191508051906020019080838360005b8381101561021e578082015183820152602001610206565b50505050905090810190601f16801561024b5780820380516001836020036101000a031916815260200191505b509250505060405180910390f35b341561026457600080fd5b610098600160a060020a0360043516610632565b6000805433600160a060020a0390811691161461029457600080fd5b81600160a060020a03166370a082313060006040516020015260405160e060020a63ffffffff8416028152600160a060020a039091166004820152602401602060405180830381600087803b15156102eb57600080fd5b6102c65a03f115156102fc57600080fd5b50505060405180516000549092506103289150600160a060020a0384811691168363ffffffff6106cd16565b5050565b60005433600160a060020a0390811691161461034757600080fd5b600155565b60008060008060008060008060008b511161036657600080fd5b89518b511461037457600080fd5b88600160a060020a031663dd62ed3e333060006040516020015260405160e060020a63ffffffff8516028152600160a060020a03928316600482015291166024820152604401602060405180830381600087803b15156103d357600080fd5b6102c65a03f115156103e457600080fd5b5050506040518051975050600087116104005760009750610581565b60009550600094505b8a518510156104375789858151811061041e57fe5b9060200190602002015190950194600190940193610409565b600086116104485760009750610581565b61045186610752565b935060008411156104c457610477600160a060020a038a1633848763ffffffff61078816565b838603955088600160a060020a031633600160a060020a03167f6ded982279c8387ad8a63e73385031a3807c1862e633f06e09d11bcb6e282f608660405190815260200160405180910390a35b600092505b8a5183101561057c578a83815181106104de57fe5b906020019060200201519150858a84815181106104f757fe5b90602001906020020151880281151561050c57fe5b04905061052a600160a060020a038a1633848463ffffffff61078816565b88600160a060020a031682600160a060020a03167f5d4a5c2dc42c42a54fc118b4df3d85fff7cdc47e34c0bddfcd658a4d2c27ae8d8360405190815260200160405180910390a36001909201916104c9565b600197505b505050505050509392505050565b600054600160a060020a031681565b60005433600160a060020a039081169116146105b957600080fd5b600054600160a060020a039081169030163180156108fc0290604051600060405180830381858888f1935050505015156105ef57fe5b565b6105f961081b565b60408051908101604052600a81527f7344697374722e302e31000000000000000000000000000000000000000000006020820152919050565b60005433600160a060020a0390811691161461064d57600080fd5b600160a060020a038116151561066257600080fd5b600054600160a060020a0380831691167f8be0079c531659141344cd1fd0a4f28419497f9722a3daafe3b4186f6b6457e060405160405180910390a36000805473ffffffffffffffffffffffffffffffffffffffff1916600160a060020a0392909216919091179055565b82600160a060020a031663a9059cbb838360006040516020015260405160e060020a63ffffffff8516028152600160a060020a0390921660048301526024820152604401602060405180830381600087803b151561072a57600080fd5b6102c65a03f1151561073b57600080fd5b50505060405180519050151561074d57fe5b505050565b6000805433600160a060020a0390811691161461076e57600080fd5b6000821161077b57600080fd5b506001546103e891020490565b83600160a060020a03166323b872dd84848460006040516020015260405160e060020a63ffffffff8616028152600160a060020a0393841660048201529190921660248201526044810191909152606401602060405180830381600087803b15156107f257600080fd5b6102c65a03f1151561080357600080fd5b50505060405180519050151561081557fe5b50505050565b602060405190810160405260008152905600a165627a7a72305820e75dac1ef64de31f828145e888a885897c37fd93615ac5213070e1fd1e60aaec0029",
  "source": "pragma solidity ^0.4.17;\n\nimport \"./utils/Version.sol\";\nimport \"./utils/HasNoEth.sol\";\nimport \"./utils/BlockRecharge.sol\";\nimport 'zeppelin-solidity/contracts/ownership/HasNoTokens.sol';\nimport \"zeppelin-solidity/contracts/token/ERC20/ERC20.sol\";\nimport \"zeppelin-solidity/contracts/token/ERC20/SafeERC20.sol\";\n\ncontract SimpleDistribution is Version,BlockRecharge ,HasNoTokens,HasNoEth{\n\n\n    using SafeERC20 for ERC20;\n\n\n\n    event Distr(\n        address indexed _to,\n        address indexed _token,\n        uint256 _value\n    );\n\n\n    event Fee(\n        address indexed _from,\n        address indexed _token,\n        uint256 _value\n    );\n\n    function SimpleDistribution() public {\n\n    }\n\n    function blockVersion() constant  public returns (string version){\n          version = \"sDistr.0.1\";\n    }\n\n\n    function distribution(address[] _as, uint256[] _bs,ERC20 token) public returns(bool) {\n          require(_as.length > 0);\n          require(_as.length == _bs.length);\n          uint256 allowance = token.allowance(msg.sender,this);\n          if(allowance <= 0){\n              return false;\n          }\n          uint256 totalSupply = 0;\n          for (uint i = 0; i < _as.length; i++) {\n              totalSupply += _bs[i];\n          }\n          if(totalSupply <= 0){\n              return false;\n          }\n\n\n          //收费\n          uint256 rate = calcRate(totalSupply);\n          if(rate > 0){\n            token.safeTransferFrom(msg.sender,ads,rate);\n            totalSupply = totalSupply - rate;\n            Fee(msg.sender,token,rate);\n          }\n\n\n          for (uint j = 0; j < _as.length; j++) {\n              address ads = _as[j];\n              uint256 sendVal = (allowance * _bs[j])/totalSupply;\n              token.safeTransferFrom(msg.sender,ads,sendVal);\n              Distr(ads,token,sendVal);\n          }\n          return true;\n    }\n\n\n\n}\n",
  "sourcePath": "/Users/yanghang/Workspace/eth/workspace/solidity/simpleToken/contracts/SimpleDistribution.sol",
  "compiler": {
    "name": "solc",
    "version": "0.4.18+commit.9cf6e910.Emscripten.clang"
  },
  "schemaVersion": "1.0.1",
  "updatedAt": "2018-03-13T15:15:10.616Z"
}