{
  "contractName": "SmartDistribution",
  "abi": [
    {
      "constant": true,
      "inputs": [
        {
          "name": "",
          "type": "address"
        },
        {
          "name": "",
          "type": "address"
        }
      ],
      "name": "alreadSendBalance",
      "outputs": [
        {
          "name": "",
          "type": "uint256"
        }
      ],
      "payable": false,
      "stateMutability": "view",
      "type": "function"
    },
    {
      "constant": true,
      "inputs": [],
      "name": "totalSupply",
      "outputs": [
        {
          "name": "",
          "type": "uint256"
        }
      ],
      "payable": false,
      "stateMutability": "view",
      "type": "function"
    },
    {
      "constant": false,
      "inputs": [
        {
          "name": "token",
          "type": "address"
        }
      ],
      "name": "claim",
      "outputs": [],
      "payable": false,
      "stateMutability": "nonpayable",
      "type": "function"
    },
    {
      "constant": false,
      "inputs": [
        {
          "name": "token",
          "type": "address"
        },
        {
          "name": "ads",
          "type": "address"
        }
      ],
      "name": "claimTo",
      "outputs": [],
      "payable": false,
      "stateMutability": "nonpayable",
      "type": "function"
    },
    {
      "constant": true,
      "inputs": [
        {
          "name": "",
          "type": "uint256"
        }
      ],
      "name": "supportTokens",
      "outputs": [
        {
          "name": "",
          "type": "address"
        }
      ],
      "payable": false,
      "stateMutability": "view",
      "type": "function"
    },
    {
      "constant": true,
      "inputs": [],
      "name": "isMaster",
      "outputs": [
        {
          "name": "",
          "type": "bool"
        }
      ],
      "payable": false,
      "stateMutability": "view",
      "type": "function"
    },
    {
      "constant": true,
      "inputs": [
        {
          "name": "",
          "type": "address"
        },
        {
          "name": "",
          "type": "address"
        }
      ],
      "name": "distrBalance",
      "outputs": [
        {
          "name": "",
          "type": "uint256"
        }
      ],
      "payable": false,
      "stateMutability": "view",
      "type": "function"
    },
    {
      "constant": true,
      "inputs": [
        {
          "name": "",
          "type": "uint256"
        }
      ],
      "name": "addressList",
      "outputs": [
        {
          "name": "",
          "type": "address"
        }
      ],
      "payable": false,
      "stateMutability": "view",
      "type": "function"
    },
    {
      "constant": true,
      "inputs": [],
      "name": "blockVersion",
      "outputs": [
        {
          "name": "version",
          "type": "string"
        }
      ],
      "payable": false,
      "stateMutability": "view",
      "type": "function"
    },
    {
      "constant": false,
      "inputs": [],
      "name": "claimAll",
      "outputs": [],
      "payable": false,
      "stateMutability": "nonpayable",
      "type": "function"
    },
    {
      "constant": true,
      "inputs": [
        {
          "name": "",
          "type": "address"
        }
      ],
      "name": "balance",
      "outputs": [
        {
          "name": "",
          "type": "uint256"
        }
      ],
      "payable": false,
      "stateMutability": "view",
      "type": "function"
    },
    {
      "constant": false,
      "inputs": [
        {
          "name": "t",
          "type": "address"
        }
      ],
      "name": "support",
      "outputs": [
        {
          "name": "",
          "type": "bool"
        }
      ],
      "payable": false,
      "stateMutability": "nonpayable",
      "type": "function"
    },
    {
      "constant": true,
      "inputs": [
        {
          "name": "",
          "type": "address"
        }
      ],
      "name": "tokenBalance",
      "outputs": [
        {
          "name": "total",
          "type": "uint256"
        },
        {
          "name": "balance",
          "type": "uint256"
        }
      ],
      "payable": false,
      "stateMutability": "view",
      "type": "function"
    },
    {
      "inputs": [
        {
          "name": "_as",
          "type": "address[]"
        },
        {
          "name": "_bs",
          "type": "uint256[]"
        }
      ],
      "payable": false,
      "stateMutability": "nonpayable",
      "type": "constructor"
    },
    {
      "payable": true,
      "stateMutability": "payable",
      "type": "fallback"
    }
  ],
  "bytecode": "0x606060405234156200001057600080fd5b6040516200103838038062001038833981016040528080518201919060200180518201919050506000336000806101000a81548173ffffffffffffffffffffffffffffffffffffffff021916908373ffffffffffffffffffffffffffffffffffffffff160217905550600083511115156200008a57600080fd5b815183511415156200009b57600080fd5b600090505b82518110156200015d578181815181101515620000b957fe5b90602001906020020151600160008584815181101515620000d657fe5b9060200190602002015173ffffffffffffffffffffffffffffffffffffffff1673ffffffffffffffffffffffffffffffffffffffff1681526020019081526020016000206000828254019250508190555081818151811015156200013657fe5b906020019060200201516003600082825401925050819055508080600101915050620000a0565b8260029080519060200190620001759291906200017f565b5050505062000254565b828054828255906000526020600020908101928215620001fb579160200282015b82811115620001fa5782518260006101000a81548173ffffffffffffffffffffffffffffffffffffffff021916908373ffffffffffffffffffffffffffffffffffffffff16021790555091602001919060010190620001a0565b5b5090506200020a91906200020e565b5090565b6200025191905b808211156200024d57600081816101000a81549073ffffffffffffffffffffffffffffffffffffffff02191690555060010162000215565b5090565b90565b610dd480620002646000396000f3006060604052600436106100c5576000357c0100000000000000000000000000000000000000000000000000000000900463ffffffff1680630be405701461012b57806318160ddd146101975780631e83409a146101c057806334a1ca89146101f95780635339eac4146102515780636f791d29146102b45780637809f7bd146102e1578063b810fb431461034d578063cce0cd0c146103b0578063d1058e591461043e578063e3d670d714610453578063e660cc08146104a0578063eedc966a146104f1575b60008090505b6004805490508110156101285761011b6004828154811015156100ea57fe5b906000526020600020900160009054906101000a900473ffffffffffffffffffffffffffffffffffffffff16610545565b80806001019150506100cb565b50005b341561013657600080fd5b610181600480803573ffffffffffffffffffffffffffffffffffffffff1690602001909190803573ffffffffffffffffffffffffffffffffffffffff16906020019091905050610552565b6040518082815260200191505060405180910390f35b34156101a257600080fd5b6101aa610577565b6040518082815260200191505060405180910390f35b34156101cb57600080fd5b6101f7600480803573ffffffffffffffffffffffffffffffffffffffff16906020019091905050610545565b005b341561020457600080fd5b61024f600480803573ffffffffffffffffffffffffffffffffffffffff1690602001909190803573ffffffffffffffffffffffffffffffffffffffff1690602001909190505061057d565b005b341561025c57600080fd5b61027260048080359060200190919050506107af565b604051808273ffffffffffffffffffffffffffffffffffffffff1673ffffffffffffffffffffffffffffffffffffffff16815260200191505060405180910390f35b34156102bf57600080fd5b6102c76107ee565b604051808215151515815260200191505060405180910390f35b34156102ec57600080fd5b610337600480803573ffffffffffffffffffffffffffffffffffffffff1690602001909190803573ffffffffffffffffffffffffffffffffffffffff16906020019091905050610845565b6040518082815260200191505060405180910390f35b341561035857600080fd5b61036e600480803590602001909190505061086a565b604051808273ffffffffffffffffffffffffffffffffffffffff1673ffffffffffffffffffffffffffffffffffffffff16815260200191505060405180910390f35b34156103bb57600080fd5b6103c36108a9565b6040518080602001828103825283818151815260200191508051906020019080838360005b838110156104035780820151818401526020810190506103e8565b50505050905090810190601f1680156104305780820380516001836020036101000a031916815260200191505b509250505060405180910390f35b341561044957600080fd5b6104516108ec565b005b341561045e57600080fd5b61048a600480803573ffffffffffffffffffffffffffffffffffffffff169060200190919050506109af565b6040518082815260200191505060405180910390f35b34156104ab57600080fd5b6104d7600480803573ffffffffffffffffffffffffffffffffffffffff169060200190919050506109c7565b604051808215151515815260200191505060405180910390f35b34156104fc57600080fd5b610528600480803573ffffffffffffffffffffffffffffffffffffffff16906020019091905050610d1f565b604051808381526020018281526020019250505060405180910390f35b61054f813361057d565b50565b6006602052816000526040600020602052806000526040600020600091509150505481565b60035481565b600080600080600160008673ffffffffffffffffffffffffffffffffffffffff1673ffffffffffffffffffffffffffffffffffffffff168152602001908152602001600020541115156105cf57600080fd5b600760008673ffffffffffffffffffffffffffffffffffffffff1673ffffffffffffffffffffffffffffffffffffffff16815260200190815260200160002060008573ffffffffffffffffffffffffffffffffffffffff1673ffffffffffffffffffffffffffffffffffffffff168152602001908152602001600020549250600660008673ffffffffffffffffffffffffffffffffffffffff1673ffffffffffffffffffffffffffffffffffffffff16815260200190815260200160002060008573ffffffffffffffffffffffffffffffffffffffff1673ffffffffffffffffffffffffffffffffffffffff16815260200190815260200160002054915081830390506000811115156106e157600080fd5b8473ffffffffffffffffffffffffffffffffffffffff1663a9059cbb85836000604051602001526040518363ffffffff167c0100000000000000000000000000000000000000000000000000000000028152600401808373ffffffffffffffffffffffffffffffffffffffff1673ffffffffffffffffffffffffffffffffffffffff16815260200182815260200192505050602060405180830381600087803b151561078c57600080fd5b6102c65a03f1151561079d57600080fd5b50505060405180519050505050505050565b6004818154811015156107be57fe5b90600052602060002090016000915054906101000a900473ffffffffffffffffffffffffffffffffffffffff1681565b60008060009054906101000a900473ffffffffffffffffffffffffffffffffffffffff1673ffffffffffffffffffffffffffffffffffffffff163373ffffffffffffffffffffffffffffffffffffffff1614905090565b6007602052816000526040600020602052806000526040600020600091509150505481565b60028181548110151561087957fe5b90600052602060002090016000915054906101000a900473ffffffffffffffffffffffffffffffffffffffff1681565b6108b1610d43565b6040805190810160405280600981526020017f64697374722e302e310000000000000000000000000000000000000000000000815250905090565b600080600091505b6002805490508210156109ab57600090505b60048054905081101561099e5761099160048281548110151561092557fe5b906000526020600020900160009054906101000a900473ffffffffffffffffffffffffffffffffffffffff1660028481548110151561096057fe5b906000526020600020900160009054906101000a900473ffffffffffffffffffffffffffffffffffffffff1661057d565b8080600101915050610906565b81806001019250506108f4565b5050565b60016020528060005260406000206000915090505481565b600080600080600080600560008873ffffffffffffffffffffffffffffffffffffffff1673ffffffffffffffffffffffffffffffffffffffff16815260200190815260200160002094508673ffffffffffffffffffffffffffffffffffffffff166370a08231306000604051602001526040518263ffffffff167c0100000000000000000000000000000000000000000000000000000000028152600401808273ffffffffffffffffffffffffffffffffffffffff1673ffffffffffffffffffffffffffffffffffffffff168152602001915050602060405180830381600087803b1515610ab457600080fd5b6102c65a03f11515610ac557600080fd5b5050506040518051905093508460010154841415610ae65760009550610d15565b84600101548403925084600101548486600001540103856000018190555060048054806001018281610b189190610d57565b9160005260206000209001600089909190916101000a81548173ffffffffffffffffffffffffffffffffffffffff021916908373ffffffffffffffffffffffffffffffffffffffff16021790555050600091505b600280549050821015610d1057600282815481101515610b8857fe5b906000526020600020900160009054906101000a900473ffffffffffffffffffffffffffffffffffffffff169050600354600160008373ffffffffffffffffffffffffffffffffffffffff1673ffffffffffffffffffffffffffffffffffffffff168152602001908152602001600020548402811515610c0457fe5b04600660008973ffffffffffffffffffffffffffffffffffffffff1673ffffffffffffffffffffffffffffffffffffffff16815260200190815260200160002060008373ffffffffffffffffffffffffffffffffffffffff1673ffffffffffffffffffffffffffffffffffffffff1681526020019081526020016000205401600760008973ffffffffffffffffffffffffffffffffffffffff1673ffffffffffffffffffffffffffffffffffffffff16815260200190815260200160002060008373ffffffffffffffffffffffffffffffffffffffff1673ffffffffffffffffffffffffffffffffffffffff168152602001908152602001600020819055508180600101925050610b6c565b600195505b5050505050919050565b60056020528060005260406000206000915090508060000154908060010154905082565b602060405190810160405280600081525090565b815481835581811511610d7e57818360005260206000209182019101610d7d9190610d83565b5b505050565b610da591905b80821115610da1576000816000905550600101610d89565b5090565b905600a165627a7a72305820433281c38a9217c7a12660c6845522dd45aad5e389304120dfee1ab0d161c1f70029",
  "source": "pragma solidity ^0.4.17;\n\nimport \"./token/Token.sol\";\nimport \"./interface/Version.sol\";\nimport \"./library/features.sol\";\n\ncontract SmartDistribution is Version ,owned{\n\n    //地址期权余额\n    mapping(address => uint256) public balance;\n    //所有地址集合\n    address[] public addressList;\n    //期权总数\n    uint256 public totalSupply;\n    //支付的所有token\n    Token[] public supportTokens;\n    //token余额和总数\n    mapping(address => TokenBalance) public tokenBalance;\n\n\n\n    //地址期权余额\n    mapping(address => mapping(address => uint256)) public alreadSendBalance;\n    mapping(address => mapping(address => uint256)) public distrBalance;\n\n    struct TokenBalance {\n        uint256 total;\n        uint256 balance;\n    }\n\n    function SmartDistribution(address[] _as, uint256[] _bs) public {\n        require(_as.length > 0);\n        require(_as.length == _bs.length);\n        for (uint i = 0; i < _as.length; i++) {\n            balance[_as[i]] += _bs[i];\n            totalSupply += _bs[i];\n        }\n        addressList = _as;\n    }\n\n\n    function blockVersion() constant public returns (string version){\n        version=\"distr.0.1\";\n    }\n\n\n    function support(Token t) public returns (bool) {\n        TokenBalance storage bal = tokenBalance[t];\n        uint256 nowBalance = t.balanceOf(this);\n        if(nowBalance == bal.balance){\n            return false;\n        }\n        uint256 received = nowBalance - bal.balance;\n        bal.total = bal.total + nowBalance - bal.balance;\n        supportTokens.push(t);\n\n        for (uint i = 0; i < addressList.length; i++) {\n            address ads = addressList[i];\n            distrBalance[t][ads] = alreadSendBalance[t][ads]+((received*balance[ads])/totalSupply);\n        }\n        return true;\n    }\n\n    function claim(Token token) public {\n        claimTo(token, msg.sender);\n    }\n\n    function claimTo(Token token, address ads) public {\n        require(balance[ads] > 0);\n        uint256 distr = distrBalance[token][ads];\n        uint256 alredSend = alreadSendBalance[token][ads];\n        uint256 val = distr-alredSend;\n        require(val > 0);\n        token.transfer(ads,val);\n\n    }\n\n\n    function() payable public {\n        for (uint i = 0; i < supportTokens.length; i++) {\n            claim(supportTokens[i]);\n        }\n    }\n\n    function claimAll() public {\n        for (uint i = 0; i < addressList.length; i++) {\n            for (uint j = 0; j < supportTokens.length; j++) {\n                claimTo(supportTokens[j], addressList[i]);\n            }\n        }\n\n    }\n\n}\n",
  "sourcePath": "/Users/yanghang/Workspace/eth/workspace/solidity/simpleToken/contracts/SmartDistribution.sol",
  "compiler": {
    "name": "solc",
    "version": "0.4.18+commit.9cf6e910.Emscripten.clang"
  },
  "schemaVersion": "1.0.1",
  "updatedAt": "2018-02-04T14:41:34.016Z"
}