{
  "contractName": "SmartPoolDistribution",
  "abi": [
    {
      "constant": true,
      "inputs": [],
      "name": "name",
      "outputs": [
        {
          "name": "",
          "type": "string"
        }
      ],
      "payable": false,
      "stateMutability": "view",
      "type": "function"
    },
    {
      "constant": false,
      "inputs": [
        {
          "name": "_spender",
          "type": "address"
        },
        {
          "name": "_value",
          "type": "uint256"
        }
      ],
      "name": "approve",
      "outputs": [
        {
          "name": "success",
          "type": "bool"
        }
      ],
      "payable": false,
      "stateMutability": "nonpayable",
      "type": "function"
    },
    {
      "constant": true,
      "inputs": [],
      "name": "addressLimit",
      "outputs": [
        {
          "name": "",
          "type": "uint256"
        }
      ],
      "payable": false,
      "stateMutability": "view",
      "type": "function"
    },
    {
      "constant": true,
      "inputs": [],
      "name": "totalSupply",
      "outputs": [
        {
          "name": "",
          "type": "uint256"
        }
      ],
      "payable": false,
      "stateMutability": "view",
      "type": "function"
    },
    {
      "constant": false,
      "inputs": [
        {
          "name": "_to",
          "type": "address"
        }
      ],
      "name": "claimEth",
      "outputs": [
        {
          "name": "success",
          "type": "bool"
        }
      ],
      "payable": false,
      "stateMutability": "nonpayable",
      "type": "function"
    },
    {
      "constant": false,
      "inputs": [
        {
          "name": "_from",
          "type": "address"
        },
        {
          "name": "_to",
          "type": "address"
        },
        {
          "name": "_value",
          "type": "uint256"
        }
      ],
      "name": "transferFrom",
      "outputs": [
        {
          "name": "success",
          "type": "bool"
        }
      ],
      "payable": false,
      "stateMutability": "nonpayable",
      "type": "function"
    },
    {
      "constant": true,
      "inputs": [],
      "name": "decimals",
      "outputs": [
        {
          "name": "",
          "type": "uint8"
        }
      ],
      "payable": false,
      "stateMutability": "view",
      "type": "function"
    },
    {
      "constant": true,
      "inputs": [],
      "name": "version",
      "outputs": [
        {
          "name": "",
          "type": "string"
        }
      ],
      "payable": false,
      "stateMutability": "view",
      "type": "function"
    },
    {
      "constant": true,
      "inputs": [
        {
          "name": "_owner",
          "type": "address"
        }
      ],
      "name": "balanceOf",
      "outputs": [
        {
          "name": "balance",
          "type": "uint256"
        }
      ],
      "payable": false,
      "stateMutability": "view",
      "type": "function"
    },
    {
      "constant": true,
      "inputs": [],
      "name": "amountLimit",
      "outputs": [
        {
          "name": "",
          "type": "uint256"
        }
      ],
      "payable": false,
      "stateMutability": "view",
      "type": "function"
    },
    {
      "constant": true,
      "inputs": [],
      "name": "symbol",
      "outputs": [
        {
          "name": "",
          "type": "string"
        }
      ],
      "payable": false,
      "stateMutability": "view",
      "type": "function"
    },
    {
      "constant": false,
      "inputs": [
        {
          "name": "_to",
          "type": "address"
        },
        {
          "name": "_value",
          "type": "uint256"
        }
      ],
      "name": "transfer",
      "outputs": [
        {
          "name": "success",
          "type": "bool"
        }
      ],
      "payable": false,
      "stateMutability": "nonpayable",
      "type": "function"
    },
    {
      "constant": true,
      "inputs": [],
      "name": "amountMaxLimit",
      "outputs": [
        {
          "name": "",
          "type": "uint256"
        }
      ],
      "payable": false,
      "stateMutability": "view",
      "type": "function"
    },
    {
      "constant": true,
      "inputs": [],
      "name": "amountMinLimit",
      "outputs": [
        {
          "name": "",
          "type": "uint256"
        }
      ],
      "payable": false,
      "stateMutability": "view",
      "type": "function"
    },
    {
      "constant": true,
      "inputs": [
        {
          "name": "",
          "type": "uint256"
        }
      ],
      "name": "addressList",
      "outputs": [
        {
          "name": "",
          "type": "address"
        }
      ],
      "payable": false,
      "stateMutability": "view",
      "type": "function"
    },
    {
      "constant": true,
      "inputs": [],
      "name": "blockVersion",
      "outputs": [
        {
          "name": "_version",
          "type": "string"
        }
      ],
      "payable": false,
      "stateMutability": "view",
      "type": "function"
    },
    {
      "constant": true,
      "inputs": [
        {
          "name": "_owner",
          "type": "address"
        },
        {
          "name": "_spender",
          "type": "address"
        }
      ],
      "name": "allowance",
      "outputs": [
        {
          "name": "remaining",
          "type": "uint256"
        }
      ],
      "payable": false,
      "stateMutability": "view",
      "type": "function"
    },
    {
      "constant": true,
      "inputs": [
        {
          "name": "sen",
          "type": "address"
        }
      ],
      "name": "isMaster",
      "outputs": [
        {
          "name": "",
          "type": "bool"
        }
      ],
      "payable": false,
      "stateMutability": "view",
      "type": "function"
    },
    {
      "inputs": [
        {
          "name": "_addressLimit",
          "type": "uint256"
        },
        {
          "name": "_amountLimit",
          "type": "uint256"
        },
        {
          "name": "_amountMinLimit",
          "type": "uint256"
        },
        {
          "name": "_amountMaxLimit",
          "type": "uint256"
        },
        {
          "name": "_tokenName",
          "type": "string"
        }
      ],
      "payable": false,
      "stateMutability": "nonpayable",
      "type": "constructor"
    },
    {
      "payable": true,
      "stateMutability": "payable",
      "type": "fallback"
    },
    {
      "anonymous": false,
      "inputs": [
        {
          "indexed": true,
          "name": "_from",
          "type": "address"
        },
        {
          "indexed": true,
          "name": "_to",
          "type": "address"
        },
        {
          "indexed": false,
          "name": "_value",
          "type": "uint256"
        }
      ],
      "name": "Transfer",
      "type": "event"
    },
    {
      "anonymous": false,
      "inputs": [
        {
          "indexed": true,
          "name": "_owner",
          "type": "address"
        },
        {
          "indexed": true,
          "name": "_spender",
          "type": "address"
        },
        {
          "indexed": false,
          "name": "_value",
          "type": "uint256"
        }
      ],
      "name": "Approval",
      "type": "event"
    }
  ],
  "bytecode": "0x606060409081526003805460ff191660081790558051908101604052600881527f424c4f434b415050000000000000000000000000000000000000000000000000602082015260059080516100589291602001906100f7565b50341561006457600080fd5b604051610afb380380610afb833981016040528080519190602001805191906020018051919060200180519190602001805160008054600160a060020a03191633600160a060020a031617905591909101905060028180516100ca9291602001906100f7565b5060048180516100de9291602001906100f7565b5050600993909355600a91909155600b55600c55610192565b828054600181600116156101000203166002900490600052602060002090601f016020900481019282601f1061013857805160ff1916838001178555610165565b82800160010185558215610165579182015b8281111561016557825182559160200191906001019061014a565b50610171929150610175565b5090565b61018f91905b80821115610171576000815560010161017b565b90565b61095a806101a16000396000f3006060604052600436106100fb5763ffffffff7c010000000000000000000000000000000000000000000000000000000060003504166306fdde03811461011a578063095ea7b3146101a4578063113f792e146101da57806318160ddd146101ff578063228f38451461021257806323b872dd14610231578063313ce5671461025957806354fd4d501461028257806370a082311461029557806373b6eacf146102b457806395d89b41146102c7578063a9059cbb146102da578063a9ff5790146102fc578063b482f0bb1461030f578063b810fb4314610322578063cce0cd0c14610354578063dd62ed3e14610367578063f720f80b1461038c575b60003411156101185761010e33346103ab565b5060018054340190555b005b341561012557600080fd5b61012d610435565b60405160208082528190810183818151815260200191508051906020019080838360005b83811015610169578082015183820152602001610151565b50505050905090810190601f1680156101965780820380516001836020036101000a031916815260200191505b509250505060405180910390f35b34156101af57600080fd5b6101c6600160a060020a03600435166024356104d3565b604051901515815260200160405180910390f35b34156101e557600080fd5b6101ed610540565b60405190815260200160405180910390f35b341561020a57600080fd5b6101ed610546565b341561021d57600080fd5b6101c6600160a060020a036004351661054c565b341561023c57600080fd5b6101c6600160a060020a03600435811690602435166044356105a8565b341561026457600080fd5b61026c6106a0565b60405160ff909116815260200160405180910390f35b341561028d57600080fd5b61012d6106a9565b34156102a057600080fd5b6101ed600160a060020a0360043516610714565b34156102bf57600080fd5b6101ed61072f565b34156102d257600080fd5b61012d610735565b34156102e557600080fd5b6101c6600160a060020a03600435166024356107a0565b341561030757600080fd5b6101ed610843565b341561031a57600080fd5b6101ed610849565b341561032d57600080fd5b61033860043561084f565b604051600160a060020a03909116815260200160405180910390f35b341561035f57600080fd5b61012d610877565b341561037257600080fd5b6101ed600160a060020a0360043581169060243516610893565b341561039757600080fd5b6101c6600160a060020a03600435166108be565b600160a060020a038216600090815260066020526040812054151561040f5760088054600181016103dc83826108d2565b506000918252602090912001805473ffffffffffffffffffffffffffffffffffffffff1916600160a060020a0385161790555b50600160a060020a03909116600090815260066020526040902080549091019055600190565b60028054600181600116156101000203166002900480601f0160208091040260200160405190810160405280929190818152602001828054600181600116156101000203166002900480156104cb5780601f106104a0576101008083540402835291602001916104cb565b820191906000526020600020905b8154815290600101906020018083116104ae57829003601f168201915b505050505081565b600160a060020a03338116600081815260076020908152604080832094871680845294909152808220859055909291907f8c5be1e5ebec7d5bd14f71427d1e84f3dd0314c0f7b2291e5b200ac8c7c3b9259085905190815260200160405180910390a35060015b92915050565b60095481565b60015481565b6000805433600160a060020a03908116911614156105a35781600160a060020a03166108fc61057a30610714565b9081150290604051600060405180830381858888f19350505050151561059f57600080fd5b5060015b919050565b600160a060020a0383166000908152600660205260408120548290108015906105f85750600160a060020a0380851660009081526007602090815260408083203390941683529290522054829010155b80156106045750600082115b1561069557600160a060020a03808416600081815260066020908152604080832080548801905588851680845281842080548990039055600783528184203390961684529490915290819020805486900390559091907fddf252ad1be2c89b69c2b068fc378daa952ba7f163c4a11628f55a4df523b3ef9085905190815260200160405180910390a3506001610699565b5060005b9392505050565b60035460ff1681565b60058054600181600116156101000203166002900480601f0160208091040260200160405190810160405280929190818152602001828054600181600116156101000203166002900480156104cb5780601f106104a0576101008083540402835291602001916104cb565b600160a060020a031660009081526006602052604090205490565b600a5481565b60048054600181600116156101000203166002900480601f0160208091040260200160405190810160405280929190818152602001828054600181600116156101000203166002900480156104cb5780601f106104a0576101008083540402835291602001916104cb565b600160a060020a0333166000908152600660205260408120548290108015906107c95750600082115b1561083b57600160a060020a033381166000818152600660205260408082208054879003905592861680825290839020805486019055917fddf252ad1be2c89b69c2b068fc378daa952ba7f163c4a11628f55a4df523b3ef9085905190815260200160405180910390a350600161053a565b50600061053a565b600c5481565b600b5481565b600880548290811061085d57fe5b600091825260209091200154600160a060020a0316905081565b61087f6108fb565b602060405190810160405260008152919050565b600160a060020a03918216600090815260076020908152604080832093909416825291909152205490565b600054600160a060020a0390811691161490565b8154818355818115116108f6576000838152602090206108f691810190830161090d565b505050565b60206040519081016040526000815290565b61092b91905b808211156109275760008155600101610913565b5090565b905600a165627a7a723058203e3ff1836f900a7553149e5f4975d295256f1cfd55869d594d38350a58e92f520029",
  "source": "pragma solidity ^0.4.17;\n\nimport \"./Token.sol\";\nimport \"./utils/Version.sol\";\nimport \"./owned.sol\";\n\n\ncontract SmartPoolDistribution is Version ,owned,Token{\n\n        string public name;                   //fancy name: eg Simon Bucks\n        uint8 public decimals = 8;                //How many decimals to show. ie. There could 1000 base units with 3 decimals. Meaning 0.980 SBX = 980 base units. It's like comparing 1 wei to 1 ether.\n        string public symbol;                 //An identifier: eg SBX\n        string public version = 'BLOCKAPP';       //human 0.1 standard. Just an arbitrary versioning scheme.\n\n\n\n        mapping (address => uint256) balances;\n        mapping (address => mapping (address => uint256)) allowed;\n\n        address[] public addressList;\n\n        uint256 public addressLimit; //地址数量限制\n        uint256 public amountLimit; //总金额限制\n        uint256 public amountMinLimit;  //单人最小金额限制\n        uint256 public amountMaxLimit;  //单人最大金额限制\n\n        function SmartPoolDistribution(\n                uint256 _addressLimit,\n                uint256 _amountLimit,\n                uint256 _amountMinLimit,\n                uint256 _amountMaxLimit,\n                string _tokenName) public{\n          name = _tokenName;\n          symbol = _tokenName;\n          addressLimit = _addressLimit;\n          amountLimit = _amountLimit;\n          amountMinLimit = _amountMinLimit;\n          amountMaxLimit = _amountMaxLimit;\n        }\n\n      function transfer(address _to, uint256 _value) public returns (bool success) {\n          if (balances[msg.sender] >= _value && _value > 0) {\n              balances[msg.sender] -= _value;\n              balances[_to] += _value;\n              Transfer(msg.sender, _to, _value);\n              return true;\n          } else { return false; }\n      }\n\n      function transferFrom(address _from, address _to, uint256 _value) public returns (bool success) {\n          if (balances[_from] >= _value && allowed[_from][msg.sender] >= _value && _value > 0) {\n              balances[_to] += _value;\n              balances[_from] -= _value;\n              allowed[_from][msg.sender] -= _value;\n              Transfer(_from, _to, _value);\n              return true;\n          } else { return false; }\n      }\n\n      function balanceOf(address _owner) constant public returns (uint256 balance) {\n          return balances[_owner];\n      }\n\n      function approve(address _spender, uint256 _value)  public returns (bool success) {\n          allowed[msg.sender][_spender] = _value;\n          Approval(msg.sender, _spender, _value);\n          return true;\n      }\n\n      function allowance(address _owner, address _spender) constant public returns (uint256 remaining) {\n        return allowed[_owner][_spender];\n      }\n\n\n      function blockVersion() constant  public returns (string _version){\n          _version = \"\";\n      }\n\n      function transferAdd(address _to,uint256 _value) internal returns ( bool success){\n          if(balances[_to] == 0 ){\n            addressList.push(_to);\n          }\n          balances[_to] +=_value;\n          success = true;\n      }\n\n\n      function() payable public {\n         if(msg.value > 0){\n           transferAdd(msg.sender,msg.value);\n           totalSupply +=msg.value;\n         }\n      }\n\n      function claimEth(address _to) public onlyowner returns (bool success) {\n          _to.transfer(balanceOf(this));\n          success  = true;\n      }\n\n}\n",
  "sourcePath": "/Users/yanghang/Workspace/eth/workspace/solidity/simpleToken/contracts/SmartPoolDistribution.sol",
  "compiler": {
    "name": "solc",
    "version": "0.4.18+commit.9cf6e910.Emscripten.clang"
  },
  "schemaVersion": "1.0.1",
  "updatedAt": "2018-03-01T18:22:32.811Z"
}