{
  "contractName": "SmartDistribution",
  "abi": [
    {
      "constant": true,
      "inputs": [
        {
          "name": "",
          "type": "address"
        },
        {
          "name": "",
          "type": "address"
        }
      ],
      "name": "alreadSendBalance",
      "outputs": [
        {
          "name": "",
          "type": "uint256"
        }
      ],
      "payable": false,
      "stateMutability": "view",
      "type": "function"
    },
    {
      "constant": true,
      "inputs": [],
      "name": "totalSupply",
      "outputs": [
        {
          "name": "",
          "type": "uint256"
        }
      ],
      "payable": false,
      "stateMutability": "view",
      "type": "function"
    },
    {
      "constant": false,
      "inputs": [
        {
          "name": "token",
          "type": "address"
        }
      ],
      "name": "claim",
      "outputs": [],
      "payable": false,
      "stateMutability": "nonpayable",
      "type": "function"
    },
    {
      "constant": false,
      "inputs": [
        {
          "name": "token",
          "type": "address"
        },
        {
          "name": "ads",
          "type": "address"
        }
      ],
      "name": "claimTo",
      "outputs": [],
      "payable": false,
      "stateMutability": "nonpayable",
      "type": "function"
    },
    {
      "constant": true,
      "inputs": [
        {
          "name": "",
          "type": "uint256"
        }
      ],
      "name": "supportTokens",
      "outputs": [
        {
          "name": "",
          "type": "address"
        }
      ],
      "payable": false,
      "stateMutability": "view",
      "type": "function"
    },
    {
      "constant": true,
      "inputs": [
        {
          "name": "",
          "type": "uint256"
        }
      ],
      "name": "addressList",
      "outputs": [
        {
          "name": "",
          "type": "address"
        }
      ],
      "payable": false,
      "stateMutability": "view",
      "type": "function"
    },
    {
      "constant": false,
      "inputs": [],
      "name": "claimAll",
      "outputs": [],
      "payable": false,
      "stateMutability": "nonpayable",
      "type": "function"
    },
    {
      "constant": true,
      "inputs": [
        {
          "name": "",
          "type": "address"
        }
      ],
      "name": "balance",
      "outputs": [
        {
          "name": "",
          "type": "uint256"
        }
      ],
      "payable": false,
      "stateMutability": "view",
      "type": "function"
    },
    {
      "constant": false,
      "inputs": [
        {
          "name": "t",
          "type": "address"
        }
      ],
      "name": "support",
      "outputs": [
        {
          "name": "",
          "type": "bool"
        }
      ],
      "payable": false,
      "stateMutability": "nonpayable",
      "type": "function"
    },
    {
      "constant": true,
      "inputs": [
        {
          "name": "",
          "type": "address"
        }
      ],
      "name": "tokenBalance",
      "outputs": [
        {
          "name": "total",
          "type": "uint256"
        },
        {
          "name": "balance",
          "type": "uint256"
        }
      ],
      "payable": false,
      "stateMutability": "view",
      "type": "function"
    },
    {
      "inputs": [
        {
          "name": "_as",
          "type": "address[]"
        },
        {
          "name": "_bs",
          "type": "uint256[]"
        }
      ],
      "payable": false,
      "stateMutability": "nonpayable",
      "type": "constructor"
    },
    {
      "payable": true,
      "stateMutability": "payable",
      "type": "fallback"
    }
  ],
  "bytecode": "0x6060604052341561000f57600080fd5b604051610e2c380380610e2c83398101604052808051820191906020018051820191905050600080835111151561004557600080fd5b8151835114151561005557600080fd5b600090505b825181101561011157818181518110151561007157fe5b90602001906020020151600080858481518110151561008c57fe5b9060200190602002015173ffffffffffffffffffffffffffffffffffffffff1673ffffffffffffffffffffffffffffffffffffffff1681526020019081526020016000206000828254019250508190555081818151811015156100eb57fe5b90602001906020020151600260008282540192505081905550808060010191505061005a565b8260019080519060200190610127929190610130565b505050506101fd565b8280548282559060005260206000209081019282156101a9579160200282015b828111156101a85782518260006101000a81548173ffffffffffffffffffffffffffffffffffffffff021916908373ffffffffffffffffffffffffffffffffffffffff16021790555091602001919060010190610150565b5b5090506101b691906101ba565b5090565b6101fa91905b808211156101f657600081816101000a81549073ffffffffffffffffffffffffffffffffffffffff0219169055506001016101c0565b5090565b90565b610c208061020c6000396000f3006060604052600436106100a4576000357c0100000000000000000000000000000000000000000000000000000000900463ffffffff1680630be40570146101af57806318160ddd1461021b5780631e83409a1461024457806334a1ca891461027d5780635339eac4146102d5578063b810fb4314610338578063d1058e591461039b578063e3d670d7146103b0578063e660cc08146103fd578063eedc966a1461044e575b60008090505b6003805490508110156101ac573073ffffffffffffffffffffffffffffffffffffffff16631e83409a6003838154811015156100e257fe5b906000526020600020900160009054906101000a900473ffffffffffffffffffffffffffffffffffffffff166040518263ffffffff167c0100000000000000000000000000000000000000000000000000000000028152600401808273ffffffffffffffffffffffffffffffffffffffff1673ffffffffffffffffffffffffffffffffffffffff168152602001915050600060405180830381600087803b151561018b57600080fd5b6102c65a03f1151561019c57600080fd5b50505080806001019150506100aa565b50005b34156101ba57600080fd5b610205600480803573ffffffffffffffffffffffffffffffffffffffff1690602001909190803573ffffffffffffffffffffffffffffffffffffffff169060200190919050506104a2565b6040518082815260200191505060405180910390f35b341561022657600080fd5b61022e6104c7565b6040518082815260200191505060405180910390f35b341561024f57600080fd5b61027b600480803573ffffffffffffffffffffffffffffffffffffffff169060200190919050506104cd565b005b341561028857600080fd5b6102d3600480803573ffffffffffffffffffffffffffffffffffffffff1690602001909190803573ffffffffffffffffffffffffffffffffffffffff169060200190919050506105b2565b005b34156102e057600080fd5b6102f66004808035906020019091905050610879565b604051808273ffffffffffffffffffffffffffffffffffffffff1673ffffffffffffffffffffffffffffffffffffffff16815260200191505060405180910390f35b341561034357600080fd5b61035960048080359060200190919050506108b8565b604051808273ffffffffffffffffffffffffffffffffffffffff1673ffffffffffffffffffffffffffffffffffffffff16815260200191505060405180910390f35b34156103a657600080fd5b6103ae6108f7565b005b34156103bb57600080fd5b6103e7600480803573ffffffffffffffffffffffffffffffffffffffff16906020019091905050610a92565b6040518082815260200191505060405180910390f35b341561040857600080fd5b610434600480803573ffffffffffffffffffffffffffffffffffffffff16906020019091905050610aaa565b604051808215151515815260200191505060405180910390f35b341561045957600080fd5b610485600480803573ffffffffffffffffffffffffffffffffffffffff16906020019091905050610bd0565b604051808381526020018281526020019250505060405180910390f35b6005602052816000526040600020602052806000526040600020600091509150505481565b60025481565b3073ffffffffffffffffffffffffffffffffffffffff166334a1ca8982336040518363ffffffff167c0100000000000000000000000000000000000000000000000000000000028152600401808373ffffffffffffffffffffffffffffffffffffffff1673ffffffffffffffffffffffffffffffffffffffff1681526020018273ffffffffffffffffffffffffffffffffffffffff1673ffffffffffffffffffffffffffffffffffffffff16815260200192505050600060405180830381600087803b151561059b57600080fd5b6102c65a03f115156105ac57600080fd5b50505050565b6000806000806000808673ffffffffffffffffffffffffffffffffffffffff1673ffffffffffffffffffffffffffffffffffffffff1681526020019081526020016000205411151561060357600080fd5b600460008673ffffffffffffffffffffffffffffffffffffffff1673ffffffffffffffffffffffffffffffffffffffff1681526020019081526020016000209250600560008673ffffffffffffffffffffffffffffffffffffffff1673ffffffffffffffffffffffffffffffffffffffff16815260200190815260200160002060008573ffffffffffffffffffffffffffffffffffffffff1673ffffffffffffffffffffffffffffffffffffffff1681526020019081526020016000205491508160025484600001546000808873ffffffffffffffffffffffffffffffffffffffff1673ffffffffffffffffffffffffffffffffffffffff168152602001908152602001600020540281151561071557fe5b0403905060008111151561072857600080fd5b8473ffffffffffffffffffffffffffffffffffffffff1663a9059cbb85836000604051602001526040518363ffffffff167c0100000000000000000000000000000000000000000000000000000000028152600401808373ffffffffffffffffffffffffffffffffffffffff1673ffffffffffffffffffffffffffffffffffffffff16815260200182815260200192505050602060405180830381600087803b15156107d357600080fd5b6102c65a03f115156107e457600080fd5b5050506040518051905050808201600560008773ffffffffffffffffffffffffffffffffffffffff1673ffffffffffffffffffffffffffffffffffffffff16815260200190815260200160002060008673ffffffffffffffffffffffffffffffffffffffff1673ffffffffffffffffffffffffffffffffffffffff168152602001908152602001600020819055505050505050565b60038181548110151561088857fe5b90600052602060002090016000915054906101000a900473ffffffffffffffffffffffffffffffffffffffff1681565b6001818154811015156108c757fe5b90600052602060002090016000915054906101000a900473ffffffffffffffffffffffffffffffffffffffff1681565b600080600091505b600180549050821015610a8e57600090505b600380549050811015610a81573073ffffffffffffffffffffffffffffffffffffffff166334a1ca8960038381548110151561094957fe5b906000526020600020900160009054906101000a900473ffffffffffffffffffffffffffffffffffffffff1660018581548110151561098457fe5b906000526020600020900160009054906101000a900473ffffffffffffffffffffffffffffffffffffffff166040518363ffffffff167c0100000000000000000000000000000000000000000000000000000000028152600401808373ffffffffffffffffffffffffffffffffffffffff1673ffffffffffffffffffffffffffffffffffffffff1681526020018273ffffffffffffffffffffffffffffffffffffffff1673ffffffffffffffffffffffffffffffffffffffff16815260200192505050600060405180830381600087803b1515610a6057600080fd5b6102c65a03f11515610a7157600080fd5b5050508180600101925050610911565b81806001019250506108ff565b5050565b60006020528060005260406000206000915090505481565b6000806000600460008573ffffffffffffffffffffffffffffffffffffffff1673ffffffffffffffffffffffffffffffffffffffff16815260200190815260200160002091508373ffffffffffffffffffffffffffffffffffffffff166370a08231306000604051602001526040518263ffffffff167c0100000000000000000000000000000000000000000000000000000000028152600401808273ffffffffffffffffffffffffffffffffffffffff1673ffffffffffffffffffffffffffffffffffffffff168152602001915050602060405180830381600087803b1515610b9357600080fd5b6102c65a03f11515610ba457600080fd5b505050604051805190509050816001015481836000015401038260000181905550600192505050919050565b600460205280600052604060002060009150905080600001549080600101549050825600a165627a7a723058207108c516feb466d0a06fcacd7ec2ef9744072b6e07477b971a818a463f04d8820029",
  "source": "pragma solidity ^0.4.17;\n\nimport \"./Token.sol\";\n\ncontract SmartDistribution {\n\n    //地址期权余额\n    mapping(address => uint256) public balance;\n    //所有地址集合\n    address[] public addressList;\n    //期权总数\n    uint256 public totalSupply;\n    //支付的所有token\n    Token[] public supportTokens;\n    //token余额和总数\n    mapping(address => TokenBalance) public tokenBalance;\n\n\n    //地址期权余额\n    mapping(address => mapping(address => uint256)) public alreadSendBalance;\n\n    struct TokenBalance {\n        uint256 total;\n        uint256 balance;\n    }\n\n    function SmartDistribution(address[] _as, uint256[] _bs) public {\n        require(_as.length > 0);\n        require(_as.length == _bs.length);\n        for (uint i = 0; i < _as.length; i++) {\n            balance[_as[i]] += _bs[i];\n            totalSupply += _bs[i];\n        }\n        addressList = _as;\n    }\n\n    function support(Token t) public returns(bool) {\n        TokenBalance storage bal = tokenBalance[t];\n        uint256 nowBalance = t.balanceOf(this);\n        bal.total = bal.total + nowBalance - bal.balance;\n        return true;\n    }\n\n    function claim(Token token) public {\n        this.claimTo(token, msg.sender);\n    }\n\n    function claimTo(Token token, address ads) public {\n        require(balance[ads] > 0);\n        TokenBalance storage bal = tokenBalance[token];\n        uint256 alreadSend = alreadSendBalance[token][ads];\n        uint256 val = ((balance[ads] * bal.total)/ totalSupply)  - alreadSend;\n        require(val > 0);\n        token.transfer(ads, val);\n        alreadSendBalance[token][ads] = alreadSend + val;\n\n    }\n\n\n    function() payable public {\n        for (uint i = 0; i < supportTokens.length; i++) {\n            this.claim(supportTokens[i]);\n        }\n    }\n\n    function claimAll() public {\n        for (uint i = 0; i < addressList.length; i++) {\n            for (uint j = 0; j < supportTokens.length; i++) {\n                this.claimTo(supportTokens[j], addressList[i]);\n            }\n        }\n\n    }\n\n}\n",
  "sourcePath": "/Users/yanghang/Workspace/eth/workspace/solidity/simpleToken/contracts/SmartDistribution.sol",
  "compiler": {
    "name": "solc",
    "version": "0.4.18+commit.9cf6e910.Emscripten.clang"
  },
  "schemaVersion": "1.0.1",
  "updatedAt": "2018-01-31T05:55:13.062Z"
}