{
  "contractName": "SmartDistribution",
  "abi": [
    {
      "constant": true,
      "inputs": [
        {
          "name": "",
          "type": "address"
        },
        {
          "name": "",
          "type": "address"
        }
      ],
      "name": "alreadyBalances",
      "outputs": [
        {
          "name": "",
          "type": "uint256"
        }
      ],
      "payable": false,
      "stateMutability": "view",
      "type": "function"
    },
    {
      "constant": false,
      "inputs": [
        {
          "name": "tokens",
          "type": "address[]"
        }
      ],
      "name": "support",
      "outputs": [],
      "payable": false,
      "stateMutability": "nonpayable",
      "type": "function"
    },
    {
      "constant": true,
      "inputs": [],
      "name": "totalSupply",
      "outputs": [
        {
          "name": "",
          "type": "uint256"
        }
      ],
      "payable": false,
      "stateMutability": "view",
      "type": "function"
    },
    {
      "constant": false,
      "inputs": [
        {
          "name": "token",
          "type": "address"
        }
      ],
      "name": "claim",
      "outputs": [],
      "payable": false,
      "stateMutability": "nonpayable",
      "type": "function"
    },
    {
      "constant": true,
      "inputs": [
        {
          "name": "",
          "type": "uint256"
        }
      ],
      "name": "supportTokens",
      "outputs": [
        {
          "name": "",
          "type": "address"
        }
      ],
      "payable": false,
      "stateMutability": "view",
      "type": "function"
    },
    {
      "constant": true,
      "inputs": [
        {
          "name": "",
          "type": "address"
        }
      ],
      "name": "sumTotalBalance",
      "outputs": [
        {
          "name": "",
          "type": "uint256"
        }
      ],
      "payable": false,
      "stateMutability": "view",
      "type": "function"
    },
    {
      "constant": true,
      "inputs": [
        {
          "name": "",
          "type": "address"
        }
      ],
      "name": "balance",
      "outputs": [
        {
          "name": "",
          "type": "uint256"
        }
      ],
      "payable": false,
      "stateMutability": "view",
      "type": "function"
    },
    {
      "constant": true,
      "inputs": [
        {
          "name": "",
          "type": "address"
        }
      ],
      "name": "tokenBalance",
      "outputs": [
        {
          "name": "",
          "type": "uint256"
        }
      ],
      "payable": false,
      "stateMutability": "view",
      "type": "function"
    },
    {
      "inputs": [
        {
          "name": "_as",
          "type": "address[]"
        },
        {
          "name": "_bs",
          "type": "uint256[]"
        }
      ],
      "payable": false,
      "stateMutability": "nonpayable",
      "type": "constructor"
    }
  ],
  "bytecode": "0x6060604052341561000f57600080fd5b6040516109b33803806109b383398101604052808051820191906020018051820191905050600080835111151561004557600080fd5b8151835114151561005557600080fd5b600090505b825181101561010857818181518110151561007157fe5b90602001906020020151600080858481518110151561008c57fe5b9060200190602002015173ffffffffffffffffffffffffffffffffffffffff1673ffffffffffffffffffffffffffffffffffffffff1681526020019081526020016000208190555081818151811015156100e257fe5b90602001906020020151600160008282540192505081905550808060010191505061005a565b5050506108998061011a6000396000f30060606040526004361061008e576000357c0100000000000000000000000000000000000000000000000000000000900463ffffffff1680630a291644146100935780630b2ae0e5146100ff57806318160ddd146101595780631e83409a146101825780635339eac4146101bb578063614672591461021e578063e3d670d71461026b578063eedc966a146102b8575b600080fd5b341561009e57600080fd5b6100e9600480803573ffffffffffffffffffffffffffffffffffffffff1690602001909190803573ffffffffffffffffffffffffffffffffffffffff16906020019091905050610305565b6040518082815260200191505060405180910390f35b341561010a57600080fd5b61015760048080359060200190820180359060200190808060200260200160405190810160405280939291908181526020018383602002808284378201915050505050509190505061032a565b005b341561016457600080fd5b61016c6103c4565b6040518082815260200191505060405180910390f35b341561018d57600080fd5b6101b9600480803573ffffffffffffffffffffffffffffffffffffffff169060200190919050506103ca565b005b34156101c657600080fd5b6101dc6004808035906020019091905050610795565b604051808273ffffffffffffffffffffffffffffffffffffffff1673ffffffffffffffffffffffffffffffffffffffff16815260200191505060405180910390f35b341561022957600080fd5b610255600480803573ffffffffffffffffffffffffffffffffffffffff169060200190919050506107d4565b6040518082815260200191505060405180910390f35b341561027657600080fd5b6102a2600480803573ffffffffffffffffffffffffffffffffffffffff169060200190919050506107ec565b6040518082815260200191505060405180910390f35b34156102c357600080fd5b6102ef600480803573ffffffffffffffffffffffffffffffffffffffff16906020019091905050610804565b6040518082815260200191505060405180910390f35b6003602052816000526040600020602052806000526040600020600091509150505481565b60008090505b81518110156103c0576002805480600101828161034d919061081c565b91600052602060002090016000848481518110151561036857fe5b90602001906020020151909190916101000a81548173ffffffffffffffffffffffffffffffffffffffff021916908373ffffffffffffffffffffffffffffffffffffffff160217905550508080600101915050610330565b5050565b60015481565b6000806000806000803373ffffffffffffffffffffffffffffffffffffffff1673ffffffffffffffffffffffffffffffffffffffff1681526020019081526020016000205411151561041b57600080fd5b8373ffffffffffffffffffffffffffffffffffffffff166370a08231306000604051602001526040518263ffffffff167c0100000000000000000000000000000000000000000000000000000000028152600401808273ffffffffffffffffffffffffffffffffffffffff1673ffffffffffffffffffffffffffffffffffffffff168152602001915050602060405180830381600087803b15156104be57600080fd5b6102c65a03f115156104cf57600080fd5b505050604051805190509250600460008573ffffffffffffffffffffffffffffffffffffffff1673ffffffffffffffffffffffffffffffffffffffff168152602001908152602001600020548311156105f857600460008573ffffffffffffffffffffffffffffffffffffffff1673ffffffffffffffffffffffffffffffffffffffff168152602001908152602001600020548303915082600460008673ffffffffffffffffffffffffffffffffffffffff1673ffffffffffffffffffffffffffffffffffffffff1681526020019081526020016000208190555081600560008673ffffffffffffffffffffffffffffffffffffffff1673ffffffffffffffffffffffffffffffffffffffff168152602001908152602001600020600082825401925050819055505b600460008573ffffffffffffffffffffffffffffffffffffffff1673ffffffffffffffffffffffffffffffffffffffff16815260200190815260200160002054600560008673ffffffffffffffffffffffffffffffffffffffff1673ffffffffffffffffffffffffffffffffffffffff168152602001908152602001600020546001546000803373ffffffffffffffffffffffffffffffffffffffff1673ffffffffffffffffffffffffffffffffffffffff168152602001908152602001600020548115156106c357fe5b04020390508373ffffffffffffffffffffffffffffffffffffffff1663a9059cbb33836000604051602001526040518363ffffffff167c0100000000000000000000000000000000000000000000000000000000028152600401808373ffffffffffffffffffffffffffffffffffffffff1673ffffffffffffffffffffffffffffffffffffffff16815260200182815260200192505050602060405180830381600087803b151561077357600080fd5b6102c65a03f1151561078457600080fd5b505050604051805190505050505050565b6002818154811015156107a457fe5b90600052602060002090016000915054906101000a900473ffffffffffffffffffffffffffffffffffffffff1681565b60056020528060005260406000206000915090505481565b60006020528060005260406000206000915090505481565b60046020528060005260406000206000915090505481565b815481835581811511610843578183600052602060002091820191016108429190610848565b5b505050565b61086a91905b8082111561086657600081600090555060010161084e565b5090565b905600a165627a7a72305820a2f77daf4bb00b1e8562fd5792ad73a7643aa8203e89baf055549ff10312cead0029",
  "source": "pragma solidity ^0.4.17;\n\ncontract Token {\n    function transfer(address _to, uint _value) public returns (bool success);\n    function balanceOf(address _owner) constant public returns (uint balance);\n}\n\ncontract SmartDistribution {\n\n    mapping (address => uint256) public balance;\n    uint256 public totalSupply;\n    Token[] public supportTokens;\n    mapping(address => mapping (address => uint256)) public alreadyBalances;\n    mapping(address => uint256) public tokenBalance;\n\n    mapping(address=>uint256) public sumTotalBalance;\n\n    function SmartDistribution(address[] _as,uint256[] _bs) {\n        require(_as.length > 0);\n        require(_as.length == _bs.length);\n        for (uint i = 0; i <  _as.length; i++) {\n            balance[_as[i]]= _bs[i];\n            totalSupply+=_bs[i];\n        }\n    }\n\n    function support(Token[] tokens) {\n        for(uint i = 0 ; i < tokens.length ; i++){\n            supportTokens.push(tokens[i]);\n        }\n\n    }\n\n    function claim(Token token)  {\n        require(balance[msg.sender]>0);\n        uint256 bal =token.balanceOf(this);\n        if(bal > tokenBalance[token]){\n            uint256 sub= bal - tokenBalance[token];\n            tokenBalance[token] = bal;\n            sumTotalBalance[token] += sub;\n        }\n\n        uint val = ((balance[msg.sender]/totalSupply)*sumTotalBalance[token])-tokenBalance[token];\n        token.transfer(msg.sender,val);\n    }\n\n\n}\n",
  "sourcePath": "/Users/yanghang/Workspace/eth/workspace/solidity/simpleToken/contracts/SmartDistribution.sol",
  "compiler": {
    "name": "solc",
    "version": "0.4.18+commit.9cf6e910.Emscripten.clang"
  },
  "schemaVersion": "1.0.1",
  "updatedAt": "2018-01-25T05:07:50.688Z"
}