{
  "contractName": "SmartDistribution",
  "abi": [
    {
      "constant": true,
      "inputs": [
        {
          "name": "",
          "type": "address"
        },
        {
          "name": "",
          "type": "address"
        }
      ],
      "name": "alreadSendBalance",
      "outputs": [
        {
          "name": "",
          "type": "uint256"
        }
      ],
      "payable": false,
      "stateMutability": "view",
      "type": "function"
    },
    {
      "constant": true,
      "inputs": [],
      "name": "totalSupply",
      "outputs": [
        {
          "name": "",
          "type": "uint256"
        }
      ],
      "payable": false,
      "stateMutability": "view",
      "type": "function"
    },
    {
      "constant": false,
      "inputs": [
        {
          "name": "token",
          "type": "address"
        }
      ],
      "name": "claim",
      "outputs": [],
      "payable": false,
      "stateMutability": "nonpayable",
      "type": "function"
    },
    {
      "constant": false,
      "inputs": [
        {
          "name": "token",
          "type": "address"
        },
        {
          "name": "ads",
          "type": "address"
        }
      ],
      "name": "claimTo",
      "outputs": [],
      "payable": false,
      "stateMutability": "nonpayable",
      "type": "function"
    },
    {
      "constant": true,
      "inputs": [
        {
          "name": "",
          "type": "uint256"
        }
      ],
      "name": "supportTokens",
      "outputs": [
        {
          "name": "",
          "type": "address"
        }
      ],
      "payable": false,
      "stateMutability": "view",
      "type": "function"
    },
    {
      "constant": false,
      "inputs": [
        {
          "name": "token",
          "type": "address"
        }
      ],
      "name": "claimAll",
      "outputs": [],
      "payable": true,
      "stateMutability": "payable",
      "type": "function"
    },
    {
      "constant": true,
      "inputs": [
        {
          "name": "",
          "type": "address"
        },
        {
          "name": "",
          "type": "address"
        }
      ],
      "name": "distrBalance",
      "outputs": [
        {
          "name": "",
          "type": "uint256"
        }
      ],
      "payable": false,
      "stateMutability": "view",
      "type": "function"
    },
    {
      "constant": true,
      "inputs": [],
      "name": "addressCount",
      "outputs": [
        {
          "name": "",
          "type": "uint256"
        }
      ],
      "payable": false,
      "stateMutability": "view",
      "type": "function"
    },
    {
      "constant": true,
      "inputs": [
        {
          "name": "",
          "type": "uint256"
        }
      ],
      "name": "addressList",
      "outputs": [
        {
          "name": "",
          "type": "address"
        }
      ],
      "payable": false,
      "stateMutability": "view",
      "type": "function"
    },
    {
      "constant": true,
      "inputs": [],
      "name": "blockVersion",
      "outputs": [
        {
          "name": "version",
          "type": "string"
        }
      ],
      "payable": false,
      "stateMutability": "view",
      "type": "function"
    },
    {
      "constant": false,
      "inputs": [],
      "name": "claimImpl",
      "outputs": [],
      "payable": false,
      "stateMutability": "nonpayable",
      "type": "function"
    },
    {
      "constant": true,
      "inputs": [
        {
          "name": "",
          "type": "address"
        }
      ],
      "name": "balance",
      "outputs": [
        {
          "name": "",
          "type": "uint256"
        }
      ],
      "payable": false,
      "stateMutability": "view",
      "type": "function"
    },
    {
      "constant": false,
      "inputs": [
        {
          "name": "t",
          "type": "address"
        }
      ],
      "name": "support",
      "outputs": [
        {
          "name": "",
          "type": "bool"
        }
      ],
      "payable": false,
      "stateMutability": "nonpayable",
      "type": "function"
    },
    {
      "constant": true,
      "inputs": [
        {
          "name": "",
          "type": "address"
        }
      ],
      "name": "tokenBalance",
      "outputs": [
        {
          "name": "total",
          "type": "uint256"
        },
        {
          "name": "balance",
          "type": "uint256"
        }
      ],
      "payable": false,
      "stateMutability": "view",
      "type": "function"
    },
    {
      "constant": true,
      "inputs": [
        {
          "name": "sen",
          "type": "address"
        }
      ],
      "name": "isMaster",
      "outputs": [
        {
          "name": "",
          "type": "bool"
        }
      ],
      "payable": false,
      "stateMutability": "view",
      "type": "function"
    },
    {
      "inputs": [
        {
          "name": "_as",
          "type": "address[]"
        },
        {
          "name": "_bs",
          "type": "uint256[]"
        }
      ],
      "payable": false,
      "stateMutability": "nonpayable",
      "type": "constructor"
    },
    {
      "payable": true,
      "stateMutability": "payable",
      "type": "fallback"
    },
    {
      "anonymous": false,
      "inputs": [
        {
          "indexed": true,
          "name": "_from",
          "type": "address"
        },
        {
          "indexed": true,
          "name": "_token",
          "type": "address"
        },
        {
          "indexed": false,
          "name": "_value",
          "type": "uint256"
        }
      ],
      "name": "Claimed",
      "type": "event"
    }
  ],
  "bytecode": "0x606060405234156200001057600080fd5b6040516200127a3803806200127a833981016040528080518201919060200180518201919050506000336000806101000a81548173ffffffffffffffffffffffffffffffffffffffff021916908373ffffffffffffffffffffffffffffffffffffffff160217905550600083511115156200008a57600080fd5b815183511415156200009b57600080fd5b600090505b82518110156200015d578181815181101515620000b957fe5b90602001906020020151600160008584815181101515620000d657fe5b9060200190602002015173ffffffffffffffffffffffffffffffffffffffff1673ffffffffffffffffffffffffffffffffffffffff1681526020019081526020016000206000828254019250508190555081818151811015156200013657fe5b906020019060200201516004600082825401925050819055508080600101915050620000a0565b82600290805190602001906200017592919062000187565b5082516003819055505050506200025c565b82805482825590600052602060002090810192821562000203579160200282015b82811115620002025782518260006101000a81548173ffffffffffffffffffffffffffffffffffffffff021916908373ffffffffffffffffffffffffffffffffffffffff16021790555091602001919060010190620001a8565b5b50905062000212919062000216565b5090565b6200025991905b808211156200025557600081816101000a81549073ffffffffffffffffffffffffffffffffffffffff0219169055506001016200021d565b5090565b90565b61100e806200026c6000396000f3006060604052600436106100db576000357c0100000000000000000000000000000000000000000000000000000000900463ffffffff1680630be40570146100e557806318160ddd146101515780631e83409a1461017a57806334a1ca89146101b35780635339eac41461020b57806377329f351461026e5780637809f7bd1461029c5780639d80c81814610308578063b810fb4314610331578063cce0cd0c14610394578063dab4a32b14610422578063e3d670d714610437578063e660cc0814610484578063eedc966a146104d5578063f720f80b14610529575b6100e361057a565b005b34156100f057600080fd5b61013b600480803573ffffffffffffffffffffffffffffffffffffffff1690602001909190803573ffffffffffffffffffffffffffffffffffffffff169060200190919050506105e0565b6040518082815260200191505060405180910390f35b341561015c57600080fd5b610164610605565b6040518082815260200191505060405180910390f35b341561018557600080fd5b6101b1600480803573ffffffffffffffffffffffffffffffffffffffff1690602001909190505061060b565b005b34156101be57600080fd5b610209600480803573ffffffffffffffffffffffffffffffffffffffff1690602001909190803573ffffffffffffffffffffffffffffffffffffffff16906020019091905050610618565b005b341561021657600080fd5b61022c6004808035906020019091905050610990565b604051808273ffffffffffffffffffffffffffffffffffffffff1673ffffffffffffffffffffffffffffffffffffffff16815260200191505060405180910390f35b61029a600480803573ffffffffffffffffffffffffffffffffffffffff169060200190919050506109cf565b005b34156102a757600080fd5b6102f2600480803573ffffffffffffffffffffffffffffffffffffffff1690602001909190803573ffffffffffffffffffffffffffffffffffffffff16906020019091905050610a37565b6040518082815260200191505060405180910390f35b341561031357600080fd5b61031b610a5c565b6040518082815260200191505060405180910390f35b341561033c57600080fd5b6103526004808035906020019091905050610a62565b604051808273ffffffffffffffffffffffffffffffffffffffff1673ffffffffffffffffffffffffffffffffffffffff16815260200191505060405180910390f35b341561039f57600080fd5b6103a7610aa1565b6040518080602001828103825283818151815260200191508051906020019080838360005b838110156103e75780820151818401526020810190506103cc565b50505050905090810190601f1680156104145780820380516001836020036101000a031916815260200191505b509250505060405180910390f35b341561042d57600080fd5b61043561057a565b005b341561044257600080fd5b61046e600480803573ffffffffffffffffffffffffffffffffffffffff16906020019091905050610ae4565b6040518082815260200191505060405180910390f35b341561048f57600080fd5b6104bb600480803573ffffffffffffffffffffffffffffffffffffffff16906020019091905050610afc565b604051808215151515815260200191505060405180910390f35b34156104e057600080fd5b61050c600480803573ffffffffffffffffffffffffffffffffffffffff16906020019091905050610f00565b604051808381526020018281526020019250505060405180910390f35b341561053457600080fd5b610560600480803573ffffffffffffffffffffffffffffffffffffffff16906020019091905050610f24565b604051808215151515815260200191505060405180910390f35b60008090505b6005805490508110156105dd576105d060058281548110151561059f57fe5b906000526020600020900160009054906101000a900473ffffffffffffffffffffffffffffffffffffffff1661060b565b8080600101915050610580565b50565b6007602052816000526040600020602052806000526040600020600091509150505481565b60045481565b6106158133610618565b50565b600080600080600080600160008873ffffffffffffffffffffffffffffffffffffffff1673ffffffffffffffffffffffffffffffffffffffff1681526020019081526020016000205411151561066d57600080fd5b600860008873ffffffffffffffffffffffffffffffffffffffff1673ffffffffffffffffffffffffffffffffffffffff16815260200190815260200160002060008773ffffffffffffffffffffffffffffffffffffffff1673ffffffffffffffffffffffffffffffffffffffff168152602001908152602001600020549450600760008873ffffffffffffffffffffffffffffffffffffffff1673ffffffffffffffffffffffffffffffffffffffff16815260200190815260200160002060008773ffffffffffffffffffffffffffffffffffffffff1673ffffffffffffffffffffffffffffffffffffffff168152602001908152602001600020549350838503925060008311151561077f57600080fd5b8673ffffffffffffffffffffffffffffffffffffffff1663a9059cbb87856000604051602001526040518363ffffffff167c0100000000000000000000000000000000000000000000000000000000028152600401808373ffffffffffffffffffffffffffffffffffffffff1673ffffffffffffffffffffffffffffffffffffffff16815260200182815260200192505050602060405180830381600087803b151561082a57600080fd5b6102c65a03f1151561083b57600080fd5b50505060405180519050915081156109875784600760008973ffffffffffffffffffffffffffffffffffffffff1673ffffffffffffffffffffffffffffffffffffffff16815260200190815260200160002060008873ffffffffffffffffffffffffffffffffffffffff1673ffffffffffffffffffffffffffffffffffffffff16815260200190815260200160002081905550600660008873ffffffffffffffffffffffffffffffffffffffff1673ffffffffffffffffffffffffffffffffffffffff16815260200190815260200160002090508281600101600082825403925050819055508673ffffffffffffffffffffffffffffffffffffffff168673ffffffffffffffffffffffffffffffffffffffff167ff7a40077ff7a04c7e61f6f26fb13774259ddf1b6bce9ecf26a8276cdd3992683856040518082815260200191505060405180910390a35b50505050505050565b60058181548110151561099f57fe5b90600052602060002090016000915054906101000a900473ffffffffffffffffffffffffffffffffffffffff1681565b60008090505b600280549050811015610a3357610a26826002838154811015156109f557fe5b906000526020600020900160009054906101000a900473ffffffffffffffffffffffffffffffffffffffff16610618565b80806001019150506109d5565b5050565b6008602052816000526040600020602052806000526040600020600091509150505481565b60035481565b600281815481101515610a7157fe5b90600052602060002090016000915054906101000a900473ffffffffffffffffffffffffffffffffffffffff1681565b610aa9610f7d565b6040805190810160405280600981526020017f64697374722e302e310000000000000000000000000000000000000000000000815250905090565b60016020528060005260406000206000915090505481565b600080600080600080600080600660008a73ffffffffffffffffffffffffffffffffffffffff1673ffffffffffffffffffffffffffffffffffffffff16815260200190815260200160002096508873ffffffffffffffffffffffffffffffffffffffff166370a08231306000604051602001526040518263ffffffff167c0100000000000000000000000000000000000000000000000000000000028152600401808273ffffffffffffffffffffffffffffffffffffffff1673ffffffffffffffffffffffffffffffffffffffff168152602001915050602060405180830381600087803b1515610bec57600080fd5b6102c65a03f11515610bfd57600080fd5b5050506040518051905095508660010154861415610c1e5760009750610ef4565b86600101548603945086600101548688600001540103876000018190555085876001018190555060009350600092505b600580549050831015610cdb57600583815481101515610c6a57fe5b906000526020600020900160009054906101000a900473ffffffffffffffffffffffffffffffffffffffff1673ffffffffffffffffffffffffffffffffffffffff168973ffffffffffffffffffffffffffffffffffffffff161415610cce57600193505b8280600101935050610c4e565b831515610d465760058054806001018281610cf69190610f91565b916000526020600020900160008b909190916101000a81548173ffffffffffffffffffffffffffffffffffffffff021916908373ffffffffffffffffffffffffffffffffffffffff160217905550505b600091505b600280549050821015610eef57600282815481101515610d6757fe5b906000526020600020900160009054906101000a900473ffffffffffffffffffffffffffffffffffffffff169050600454600160008373ffffffffffffffffffffffffffffffffffffffff1673ffffffffffffffffffffffffffffffffffffffff168152602001908152602001600020548602811515610de357fe5b04600760008b73ffffffffffffffffffffffffffffffffffffffff1673ffffffffffffffffffffffffffffffffffffffff16815260200190815260200160002060008373ffffffffffffffffffffffffffffffffffffffff1673ffffffffffffffffffffffffffffffffffffffff1681526020019081526020016000205401600860008b73ffffffffffffffffffffffffffffffffffffffff1673ffffffffffffffffffffffffffffffffffffffff16815260200190815260200160002060008373ffffffffffffffffffffffffffffffffffffffff1673ffffffffffffffffffffffffffffffffffffffff168152602001908152602001600020819055508180600101925050610d4b565b600197505b50505050505050919050565b60066020528060005260406000206000915090508060000154908060010154905082565b60008060009054906101000a900473ffffffffffffffffffffffffffffffffffffffff1673ffffffffffffffffffffffffffffffffffffffff168273ffffffffffffffffffffffffffffffffffffffff16149050919050565b602060405190810160405280600081525090565b815481835581811511610fb857818360005260206000209182019101610fb79190610fbd565b5b505050565b610fdf91905b80821115610fdb576000816000905550600101610fc3565b5090565b905600a165627a7a723058201a32399a27f6511b5dc636a942ec7f519c94bf681f22f34e67257d7fcbf1db9a0029",
  "source": "pragma solidity ^0.4.17;\n\nimport \"./Token.sol\";\nimport \"./Version.sol\";\nimport \"./owned.sol\";\n\ncontract SmartDistribution is Version ,owned{\n\n    //地址期权余额\n    mapping(address => uint256) public balance;\n    //所有地址集合\n    address[] public addressList;\n    uint256 public addressCount;\n\n    //期权总数\n    uint256 public totalSupply;\n    //支付的所有token\n    Token[] public supportTokens;\n    //token余额和总数\n    mapping(address => TokenBalance) public tokenBalance;\n\n\n\n    //地址期权余额\n    mapping(address => mapping(address => uint256)) public alreadSendBalance;\n    mapping(address => mapping(address => uint256)) public distrBalance;\n\n    event Claimed(\n            address indexed _from,\n            address indexed _token,\n            uint256 _value\n        );\n\n\n    struct TokenBalance {\n        uint256 total;\n        uint256 balance;\n    }\n\n    function SmartDistribution(address[] _as, uint256[] _bs) public {\n        require(_as.length > 0);\n        require(_as.length == _bs.length);\n        for (uint i = 0; i < _as.length; i++) {\n            balance[_as[i]] += _bs[i];\n            totalSupply += _bs[i];\n        }\n        addressList = _as;\n        addressCount = _as.length;\n    }\n\n\n    function blockVersion() constant public returns (string version){\n        version=\"distr.0.1\";\n    }\n\n\n    function support(Token t) public returns (bool) {\n        TokenBalance storage bal = tokenBalance[t];\n        uint256 nowBalance = t.balanceOf(this);\n        if(nowBalance == bal.balance){\n            return false;\n        }\n        uint256 received = nowBalance - bal.balance;\n        bal.total = bal.total + nowBalance - bal.balance;\n        bal.balance = nowBalance;\n        bool exists = false;\n        for (uint j = 0; j < supportTokens.length; j++) {\n            if(t == supportTokens[j]){\n              exists = true;\n            }\n        }\n        if(!exists){\n            supportTokens.push(t);\n        }\n\n        for (uint i = 0; i < addressList.length; i++) {\n            address ads = addressList[i];\n            distrBalance[t][ads] = alreadSendBalance[t][ads]+((received*balance[ads])/totalSupply);\n        }\n        return true;\n    }\n\n    function claim(Token token) public {\n        claimTo(token, msg.sender);\n    }\n\n    function claimTo(Token token, address ads) public {\n        require(balance[ads] > 0);\n        uint256 distr = distrBalance[token][ads];\n        uint256 alredSend = alreadSendBalance[token][ads];\n        uint256 val = distr-alredSend;\n        require(val > 0);\n        bool success = token.transfer(ads,val);\n        if(success){\n           alreadSendBalance[token][ads]=distr;\n\n           TokenBalance storage bal = tokenBalance[token];\n           bal.balance-=val;\n           Claimed(ads,token,val);\n        }\n\n    }\n\n\n    function() payable public {\n      claimImpl();\n    }\n\n    function claimImpl() public{\n      for (uint i = 0; i < supportTokens.length; i++) {\n          claim(supportTokens[i]);\n      }\n    }\n\n    function claimAll(Token token) payable public {\n        for (uint i = 0; i < addressList.length; i++) {\n            claimTo(token, addressList[i]);\n        }\n\n    }\n\n}\n",
  "sourcePath": "/Users/yanghang/Workspace/eth/workspace/solidity/simpleToken/contracts/SmartDistribution.sol",
  "compiler": {
    "name": "solc",
    "version": "0.4.18+commit.9cf6e910.Emscripten.clang"
  },
  "schemaVersion": "1.0.1",
  "updatedAt": "2018-02-24T10:19:48.851Z"
}