{
  "contractName": "SmartPoolDistribution",
  "abi": [
    {
      "constant": true,
      "inputs": [],
      "name": "name",
      "outputs": [
        {
          "name": "",
          "type": "string"
        }
      ],
      "payable": false,
      "stateMutability": "view",
      "type": "function"
    },
    {
      "constant": false,
      "inputs": [
        {
          "name": "_spender",
          "type": "address"
        },
        {
          "name": "_value",
          "type": "uint256"
        }
      ],
      "name": "approve",
      "outputs": [
        {
          "name": "success",
          "type": "bool"
        }
      ],
      "payable": false,
      "stateMutability": "nonpayable",
      "type": "function"
    },
    {
      "constant": true,
      "inputs": [],
      "name": "addressLimit",
      "outputs": [
        {
          "name": "",
          "type": "uint256"
        }
      ],
      "payable": false,
      "stateMutability": "view",
      "type": "function"
    },
    {
      "constant": true,
      "inputs": [],
      "name": "totalSupply",
      "outputs": [
        {
          "name": "",
          "type": "uint256"
        }
      ],
      "payable": false,
      "stateMutability": "view",
      "type": "function"
    },
    {
      "constant": false,
      "inputs": [
        {
          "name": "_to",
          "type": "address"
        }
      ],
      "name": "claimEth",
      "outputs": [
        {
          "name": "success",
          "type": "bool"
        }
      ],
      "payable": false,
      "stateMutability": "nonpayable",
      "type": "function"
    },
    {
      "constant": false,
      "inputs": [
        {
          "name": "_from",
          "type": "address"
        },
        {
          "name": "_to",
          "type": "address"
        },
        {
          "name": "_value",
          "type": "uint256"
        }
      ],
      "name": "transferFrom",
      "outputs": [
        {
          "name": "success",
          "type": "bool"
        }
      ],
      "payable": false,
      "stateMutability": "nonpayable",
      "type": "function"
    },
    {
      "constant": true,
      "inputs": [],
      "name": "decimals",
      "outputs": [
        {
          "name": "",
          "type": "uint8"
        }
      ],
      "payable": false,
      "stateMutability": "view",
      "type": "function"
    },
    {
      "constant": true,
      "inputs": [],
      "name": "version",
      "outputs": [
        {
          "name": "",
          "type": "string"
        }
      ],
      "payable": false,
      "stateMutability": "view",
      "type": "function"
    },
    {
      "constant": true,
      "inputs": [
        {
          "name": "_owner",
          "type": "address"
        }
      ],
      "name": "balanceOf",
      "outputs": [
        {
          "name": "balance",
          "type": "uint256"
        }
      ],
      "payable": false,
      "stateMutability": "view",
      "type": "function"
    },
    {
      "constant": true,
      "inputs": [],
      "name": "amountLimit",
      "outputs": [
        {
          "name": "",
          "type": "uint256"
        }
      ],
      "payable": false,
      "stateMutability": "view",
      "type": "function"
    },
    {
      "constant": true,
      "inputs": [],
      "name": "symbol",
      "outputs": [
        {
          "name": "",
          "type": "string"
        }
      ],
      "payable": false,
      "stateMutability": "view",
      "type": "function"
    },
    {
      "constant": false,
      "inputs": [
        {
          "name": "_to",
          "type": "address"
        },
        {
          "name": "_value",
          "type": "uint256"
        }
      ],
      "name": "transfer",
      "outputs": [
        {
          "name": "success",
          "type": "bool"
        }
      ],
      "payable": false,
      "stateMutability": "nonpayable",
      "type": "function"
    },
    {
      "constant": true,
      "inputs": [],
      "name": "amountMaxLimit",
      "outputs": [
        {
          "name": "",
          "type": "uint256"
        }
      ],
      "payable": false,
      "stateMutability": "view",
      "type": "function"
    },
    {
      "constant": true,
      "inputs": [],
      "name": "amountMinLimit",
      "outputs": [
        {
          "name": "",
          "type": "uint256"
        }
      ],
      "payable": false,
      "stateMutability": "view",
      "type": "function"
    },
    {
      "constant": true,
      "inputs": [
        {
          "name": "",
          "type": "uint256"
        }
      ],
      "name": "addressList",
      "outputs": [
        {
          "name": "",
          "type": "address"
        }
      ],
      "payable": false,
      "stateMutability": "view",
      "type": "function"
    },
    {
      "constant": true,
      "inputs": [],
      "name": "blockVersion",
      "outputs": [
        {
          "name": "_version",
          "type": "string"
        }
      ],
      "payable": false,
      "stateMutability": "view",
      "type": "function"
    },
    {
      "constant": true,
      "inputs": [
        {
          "name": "_owner",
          "type": "address"
        },
        {
          "name": "_spender",
          "type": "address"
        }
      ],
      "name": "allowance",
      "outputs": [
        {
          "name": "remaining",
          "type": "uint256"
        }
      ],
      "payable": false,
      "stateMutability": "view",
      "type": "function"
    },
    {
      "constant": true,
      "inputs": [
        {
          "name": "sen",
          "type": "address"
        }
      ],
      "name": "isMaster",
      "outputs": [
        {
          "name": "",
          "type": "bool"
        }
      ],
      "payable": false,
      "stateMutability": "view",
      "type": "function"
    },
    {
      "inputs": [
        {
          "name": "_addressLimit",
          "type": "uint256"
        },
        {
          "name": "_amountLimit",
          "type": "uint256"
        },
        {
          "name": "_amountMinLimit",
          "type": "uint256"
        },
        {
          "name": "_amountMaxLimit",
          "type": "uint256"
        },
        {
          "name": "_tokenName",
          "type": "string"
        }
      ],
      "payable": false,
      "stateMutability": "nonpayable",
      "type": "constructor"
    },
    {
      "payable": true,
      "stateMutability": "payable",
      "type": "fallback"
    },
    {
      "anonymous": false,
      "inputs": [
        {
          "indexed": true,
          "name": "_from",
          "type": "address"
        },
        {
          "indexed": true,
          "name": "_to",
          "type": "address"
        },
        {
          "indexed": false,
          "name": "_value",
          "type": "uint256"
        }
      ],
      "name": "Transfer",
      "type": "event"
    },
    {
      "anonymous": false,
      "inputs": [
        {
          "indexed": true,
          "name": "_owner",
          "type": "address"
        },
        {
          "indexed": true,
          "name": "_spender",
          "type": "address"
        },
        {
          "indexed": false,
          "name": "_value",
          "type": "uint256"
        }
      ],
      "name": "Approval",
      "type": "event"
    }
  ],
  "bytecode": "0x60606040526008600360006101000a81548160ff021916908360ff1602179055506040805190810160405280600881526020017f424c4f434b415050000000000000000000000000000000000000000000000000815250600590805190602001906200006d92919062000155565b5034156200007a57600080fd5b604051620013fc380380620013fc83398101604052808051906020019091908051906020019091908051906020019091908051906020019091908051820191905050336000806101000a81548173ffffffffffffffffffffffffffffffffffffffff021916908373ffffffffffffffffffffffffffffffffffffffff16021790555080600290805190602001906200011492919062000155565b5080600490805190602001906200012d92919062000155565b508460098190555083600a8190555082600b8190555081600c81905550505050505062000204565b828054600181600116156101000203166002900490600052602060002090601f016020900481019282601f106200019857805160ff1916838001178555620001c9565b82800160010185558215620001c9579182015b82811115620001c8578251825591602001919060010190620001ab565b5b509050620001d89190620001dc565b5090565b6200020191905b80821115620001fd576000816000905550600101620001e3565b5090565b90565b6111e880620002146000396000f3006060604052600436106100fc576000357c0100000000000000000000000000000000000000000000000000000000900463ffffffff16806306fdde0314610123578063095ea7b3146101b1578063113f792e1461020b57806318160ddd14610234578063228f38451461025d57806323b872dd146102ae578063313ce5671461032757806354fd4d501461035657806370a08231146103e457806373b6eacf1461043157806395d89b411461045a578063a9059cbb146104e8578063a9ff579014610542578063b482f0bb1461056b578063b810fb4314610594578063cce0cd0c146105f7578063dd62ed3e14610685578063f720f80b146106f1575b60003411156101215761010f3334610742565b50346001600082825401925050819055505b005b341561012e57600080fd5b610136610846565b6040518080602001828103825283818151815260200191508051906020019080838360005b8381101561017657808201518184015260208101905061015b565b50505050905090810190601f1680156101a35780820380516001836020036101000a031916815260200191505b509250505060405180910390f35b34156101bc57600080fd5b6101f1600480803573ffffffffffffffffffffffffffffffffffffffff169060200190919080359060200190919050506108e4565b604051808215151515815260200191505060405180910390f35b341561021657600080fd5b61021e6109d6565b6040518082815260200191505060405180910390f35b341561023f57600080fd5b6102476109dc565b6040518082815260200191505060405180910390f35b341561026857600080fd5b610294600480803573ffffffffffffffffffffffffffffffffffffffff169060200190919050506109e2565b604051808215151515815260200191505060405180910390f35b34156102b957600080fd5b61030d600480803573ffffffffffffffffffffffffffffffffffffffff1690602001909190803573ffffffffffffffffffffffffffffffffffffffff16906020019091908035906020019091905050610a8b565b604051808215151515815260200191505060405180910390f35b341561033257600080fd5b61033a610d07565b604051808260ff1660ff16815260200191505060405180910390f35b341561036157600080fd5b610369610d1a565b6040518080602001828103825283818151815260200191508051906020019080838360005b838110156103a957808201518184015260208101905061038e565b50505050905090810190601f1680156103d65780820380516001836020036101000a031916815260200191505b509250505060405180910390f35b34156103ef57600080fd5b61041b600480803573ffffffffffffffffffffffffffffffffffffffff16906020019091905050610db8565b6040518082815260200191505060405180910390f35b341561043c57600080fd5b610444610e01565b6040518082815260200191505060405180910390f35b341561046557600080fd5b61046d610e07565b6040518080602001828103825283818151815260200191508051906020019080838360005b838110156104ad578082015181840152602081019050610492565b50505050905090810190601f1680156104da5780820380516001836020036101000a031916815260200191505b509250505060405180910390f35b34156104f357600080fd5b610528600480803573ffffffffffffffffffffffffffffffffffffffff16906020019091908035906020019091905050610ea5565b604051808215151515815260200191505060405180910390f35b341561054d57600080fd5b61055561100e565b6040518082815260200191505060405180910390f35b341561057657600080fd5b61057e611014565b6040518082815260200191505060405180910390f35b341561059f57600080fd5b6105b5600480803590602001909190505061101a565b604051808273ffffffffffffffffffffffffffffffffffffffff1673ffffffffffffffffffffffffffffffffffffffff16815260200191505060405180910390f35b341561060257600080fd5b61060a611059565b6040518080602001828103825283818151815260200191508051906020019080838360005b8381101561064a57808201518184015260208101905061062f565b50505050905090810190601f1680156106775780820380516001836020036101000a031916815260200191505b509250505060405180910390f35b341561069057600080fd5b6106db600480803573ffffffffffffffffffffffffffffffffffffffff1690602001909190803573ffffffffffffffffffffffffffffffffffffffff16906020019091905050611077565b6040518082815260200191505060405180910390f35b34156106fc57600080fd5b610728600480803573ffffffffffffffffffffffffffffffffffffffff169060200190919050506110fe565b604051808215151515815260200191505060405180910390f35b600080600660008573ffffffffffffffffffffffffffffffffffffffff1673ffffffffffffffffffffffffffffffffffffffff1681526020019081526020016000205414156107ef576008805480600101828161079f9190611157565b9160005260206000209001600085909190916101000a81548173ffffffffffffffffffffffffffffffffffffffff021916908373ffffffffffffffffffffffffffffffffffffffff160217905550505b81600660008573ffffffffffffffffffffffffffffffffffffffff1673ffffffffffffffffffffffffffffffffffffffff168152602001908152602001600020600082825401925050819055506001905092915050565b60028054600181600116156101000203166002900480601f0160208091040260200160405190810160405280929190818152602001828054600181600116156101000203166002900480156108dc5780601f106108b1576101008083540402835291602001916108dc565b820191906000526020600020905b8154815290600101906020018083116108bf57829003601f168201915b505050505081565b600081600760003373ffffffffffffffffffffffffffffffffffffffff1673ffffffffffffffffffffffffffffffffffffffff16815260200190815260200160002060008573ffffffffffffffffffffffffffffffffffffffff1673ffffffffffffffffffffffffffffffffffffffff168152602001908152602001600020819055508273ffffffffffffffffffffffffffffffffffffffff163373ffffffffffffffffffffffffffffffffffffffff167f8c5be1e5ebec7d5bd14f71427d1e84f3dd0314c0f7b2291e5b200ac8c7c3b925846040518082815260200191505060405180910390a36001905092915050565b60095481565b60015481565b60008060009054906101000a900473ffffffffffffffffffffffffffffffffffffffff1673ffffffffffffffffffffffffffffffffffffffff163373ffffffffffffffffffffffffffffffffffffffff161415610a86578173ffffffffffffffffffffffffffffffffffffffff166108fc610a5c30610db8565b9081150290604051600060405180830381858888f193505050501515610a8157600080fd5b600190505b919050565b600081600660008673ffffffffffffffffffffffffffffffffffffffff1673ffffffffffffffffffffffffffffffffffffffff1681526020019081526020016000205410158015610b58575081600760008673ffffffffffffffffffffffffffffffffffffffff1673ffffffffffffffffffffffffffffffffffffffff16815260200190815260200160002060003373ffffffffffffffffffffffffffffffffffffffff1673ffffffffffffffffffffffffffffffffffffffff1681526020019081526020016000205410155b8015610b645750600082115b15610cfb5781600660008573ffffffffffffffffffffffffffffffffffffffff1673ffffffffffffffffffffffffffffffffffffffff1681526020019081526020016000206000828254019250508190555081600660008673ffffffffffffffffffffffffffffffffffffffff1673ffffffffffffffffffffffffffffffffffffffff1681526020019081526020016000206000828254039250508190555081600760008673ffffffffffffffffffffffffffffffffffffffff1673ffffffffffffffffffffffffffffffffffffffff16815260200190815260200160002060003373ffffffffffffffffffffffffffffffffffffffff1673ffffffffffffffffffffffffffffffffffffffff168152602001908152602001600020600082825403925050819055508273ffffffffffffffffffffffffffffffffffffffff168473ffffffffffffffffffffffffffffffffffffffff167fddf252ad1be2c89b69c2b068fc378daa952ba7f163c4a11628f55a4df523b3ef846040518082815260200191505060405180910390a360019050610d00565b600090505b9392505050565b600360009054906101000a900460ff1681565b60058054600181600116156101000203166002900480601f016020809104026020016040519081016040528092919081815260200182805460018160011615610100020316600290048015610db05780601f10610d8557610100808354040283529160200191610db0565b820191906000526020600020905b815481529060010190602001808311610d9357829003601f168201915b505050505081565b6000600660008373ffffffffffffffffffffffffffffffffffffffff1673ffffffffffffffffffffffffffffffffffffffff168152602001908152602001600020549050919050565b600a5481565b60048054600181600116156101000203166002900480601f016020809104026020016040519081016040528092919081815260200182805460018160011615610100020316600290048015610e9d5780601f10610e7257610100808354040283529160200191610e9d565b820191906000526020600020905b815481529060010190602001808311610e8057829003601f168201915b505050505081565b600081600660003373ffffffffffffffffffffffffffffffffffffffff1673ffffffffffffffffffffffffffffffffffffffff1681526020019081526020016000205410158015610ef65750600082115b156110035781600660003373ffffffffffffffffffffffffffffffffffffffff1673ffffffffffffffffffffffffffffffffffffffff1681526020019081526020016000206000828254039250508190555081600660008573ffffffffffffffffffffffffffffffffffffffff1673ffffffffffffffffffffffffffffffffffffffff168152602001908152602001600020600082825401925050819055508273ffffffffffffffffffffffffffffffffffffffff163373ffffffffffffffffffffffffffffffffffffffff167fddf252ad1be2c89b69c2b068fc378daa952ba7f163c4a11628f55a4df523b3ef846040518082815260200191505060405180910390a360019050611008565b600090505b92915050565b600c5481565b600b5481565b60088181548110151561102957fe5b90600052602060002090016000915054906101000a900473ffffffffffffffffffffffffffffffffffffffff1681565b611061611183565b6020604051908101604052806000815250905090565b6000600760008473ffffffffffffffffffffffffffffffffffffffff1673ffffffffffffffffffffffffffffffffffffffff16815260200190815260200160002060008373ffffffffffffffffffffffffffffffffffffffff1673ffffffffffffffffffffffffffffffffffffffff16815260200190815260200160002054905092915050565b60008060009054906101000a900473ffffffffffffffffffffffffffffffffffffffff1673ffffffffffffffffffffffffffffffffffffffff168273ffffffffffffffffffffffffffffffffffffffff16149050919050565b81548183558181151161117e5781836000526020600020918201910161117d9190611197565b5b505050565b602060405190810160405280600081525090565b6111b991905b808211156111b557600081600090555060010161119d565b5090565b905600a165627a7a72305820c293dd7ef08c9f61807ae69e49e6a2a23c805f86c3aaf6e0bcc9ae154699e8b70029",
  "source": "pragma solidity ^0.4.17;\n\nimport \"./Token.sol\";\nimport \"./Version.sol\";\nimport \"./owned.sol\";\n\n\ncontract SmartPoolDistribution is Version ,owned,Token{\n\n        string public name;                   //fancy name: eg Simon Bucks\n        uint8 public decimals = 8;                //How many decimals to show. ie. There could 1000 base units with 3 decimals. Meaning 0.980 SBX = 980 base units. It's like comparing 1 wei to 1 ether.\n        string public symbol;                 //An identifier: eg SBX\n        string public version = 'BLOCKAPP';       //human 0.1 standard. Just an arbitrary versioning scheme.\n\n\n\n        mapping (address => uint256) balances;\n        mapping (address => mapping (address => uint256)) allowed;\n\n        address[] public addressList;\n\n        uint256 public addressLimit; //地址数量限制\n        uint256 public amountLimit; //总金额限制\n        uint256 public amountMinLimit;  //单人最小金额限制\n        uint256 public amountMaxLimit;  //单人最大金额限制\n\n        function SmartPoolDistribution(\n                uint256 _addressLimit,\n                uint256 _amountLimit,\n                uint256 _amountMinLimit,\n                uint256 _amountMaxLimit,\n                string _tokenName) public{\n          name = _tokenName;\n          symbol = _tokenName;\n          addressLimit = _addressLimit;\n          amountLimit = _amountLimit;\n          amountMinLimit = _amountMinLimit;\n          amountMaxLimit = _amountMaxLimit;\n        }\n\n      function transfer(address _to, uint256 _value) public returns (bool success) {\n          if (balances[msg.sender] >= _value && _value > 0) {\n              balances[msg.sender] -= _value;\n              balances[_to] += _value;\n              Transfer(msg.sender, _to, _value);\n              return true;\n          } else { return false; }\n      }\n\n      function transferFrom(address _from, address _to, uint256 _value) public returns (bool success) {\n          if (balances[_from] >= _value && allowed[_from][msg.sender] >= _value && _value > 0) {\n              balances[_to] += _value;\n              balances[_from] -= _value;\n              allowed[_from][msg.sender] -= _value;\n              Transfer(_from, _to, _value);\n              return true;\n          } else { return false; }\n      }\n\n      function balanceOf(address _owner) constant public returns (uint256 balance) {\n          return balances[_owner];\n      }\n\n      function approve(address _spender, uint256 _value)  public returns (bool success) {\n          allowed[msg.sender][_spender] = _value;\n          Approval(msg.sender, _spender, _value);\n          return true;\n      }\n\n      function allowance(address _owner, address _spender) constant public returns (uint256 remaining) {\n        return allowed[_owner][_spender];\n      }\n\n\n      function blockVersion() constant  public returns (string _version){\n          _version = \"\";\n      }\n\n      function transferAdd(address _to,uint256 _value) internal returns ( bool success){\n          if(balances[_to] == 0 ){\n            addressList.push(_to);\n          }\n          balances[_to] +=_value;\n          success = true;\n      }\n\n\n      function() payable public {\n         if(msg.value > 0){\n           transferAdd(msg.sender,msg.value);\n           totalSupply +=msg.value;\n         }\n      }\n\n      function claimEth(address _to) public onlyowner returns (bool success) {\n          _to.transfer(balanceOf(this));\n          success  = true;\n      }\n\n}\n",
  "sourcePath": "/Users/yanghang/Workspace/eth/workspace/solidity/simpleToken/contracts/SmartPoolDistribution.sol",
  "compiler": {
    "name": "solc",
    "version": "0.4.18+commit.9cf6e910.Emscripten.clang"
  },
  "schemaVersion": "1.0.1",
  "updatedAt": "2018-02-24T09:53:08.973Z"
}