{
  "contractName": "SmartDistribution",
  "abi": [
    {
      "constant": true,
      "inputs": [
        {
          "name": "",
          "type": "address"
        },
        {
          "name": "",
          "type": "address"
        }
      ],
      "name": "alreadSendBalance",
      "outputs": [
        {
          "name": "",
          "type": "uint256"
        }
      ],
      "payable": false,
      "stateMutability": "view",
      "type": "function"
    },
    {
      "constant": false,
      "inputs": [
        {
          "name": "token",
          "type": "address"
        }
      ],
      "name": "reclaimToken",
      "outputs": [],
      "payable": false,
      "stateMutability": "nonpayable",
      "type": "function"
    },
    {
      "constant": true,
      "inputs": [],
      "name": "totalSupply",
      "outputs": [
        {
          "name": "",
          "type": "uint256"
        }
      ],
      "payable": false,
      "stateMutability": "view",
      "type": "function"
    },
    {
      "constant": false,
      "inputs": [
        {
          "name": "token",
          "type": "address"
        }
      ],
      "name": "claim",
      "outputs": [],
      "payable": false,
      "stateMutability": "nonpayable",
      "type": "function"
    },
    {
      "constant": false,
      "inputs": [
        {
          "name": "token",
          "type": "address"
        },
        {
          "name": "ads",
          "type": "address"
        }
      ],
      "name": "claimTo",
      "outputs": [],
      "payable": false,
      "stateMutability": "nonpayable",
      "type": "function"
    },
    {
      "constant": true,
      "inputs": [
        {
          "name": "",
          "type": "uint256"
        }
      ],
      "name": "supportTokens",
      "outputs": [
        {
          "name": "",
          "type": "address"
        }
      ],
      "payable": false,
      "stateMutability": "view",
      "type": "function"
    },
    {
      "constant": false,
      "inputs": [
        {
          "name": "token",
          "type": "address"
        }
      ],
      "name": "claimAll",
      "outputs": [],
      "payable": true,
      "stateMutability": "payable",
      "type": "function"
    },
    {
      "constant": true,
      "inputs": [
        {
          "name": "",
          "type": "address"
        },
        {
          "name": "",
          "type": "address"
        }
      ],
      "name": "distrBalance",
      "outputs": [
        {
          "name": "",
          "type": "uint256"
        }
      ],
      "payable": false,
      "stateMutability": "view",
      "type": "function"
    },
    {
      "constant": true,
      "inputs": [],
      "name": "owner",
      "outputs": [
        {
          "name": "",
          "type": "address"
        }
      ],
      "payable": false,
      "stateMutability": "view",
      "type": "function"
    },
    {
      "constant": true,
      "inputs": [],
      "name": "addressCount",
      "outputs": [
        {
          "name": "",
          "type": "uint256"
        }
      ],
      "payable": false,
      "stateMutability": "view",
      "type": "function"
    },
    {
      "constant": false,
      "inputs": [],
      "name": "reclaimEther",
      "outputs": [],
      "payable": false,
      "stateMutability": "nonpayable",
      "type": "function"
    },
    {
      "constant": true,
      "inputs": [
        {
          "name": "",
          "type": "uint256"
        }
      ],
      "name": "addressList",
      "outputs": [
        {
          "name": "",
          "type": "address"
        }
      ],
      "payable": false,
      "stateMutability": "view",
      "type": "function"
    },
    {
      "constant": false,
      "inputs": [
        {
          "name": "from_",
          "type": "address"
        },
        {
          "name": "value_",
          "type": "uint256"
        },
        {
          "name": "data_",
          "type": "bytes"
        }
      ],
      "name": "tokenFallback",
      "outputs": [],
      "payable": false,
      "stateMutability": "nonpayable",
      "type": "function"
    },
    {
      "constant": true,
      "inputs": [],
      "name": "blockVersion",
      "outputs": [
        {
          "name": "version",
          "type": "string"
        }
      ],
      "payable": false,
      "stateMutability": "view",
      "type": "function"
    },
    {
      "constant": false,
      "inputs": [],
      "name": "claimImpl",
      "outputs": [],
      "payable": false,
      "stateMutability": "nonpayable",
      "type": "function"
    },
    {
      "constant": true,
      "inputs": [
        {
          "name": "",
          "type": "address"
        }
      ],
      "name": "balance",
      "outputs": [
        {
          "name": "",
          "type": "uint256"
        }
      ],
      "payable": false,
      "stateMutability": "view",
      "type": "function"
    },
    {
      "constant": false,
      "inputs": [
        {
          "name": "t",
          "type": "address"
        }
      ],
      "name": "support",
      "outputs": [
        {
          "name": "",
          "type": "bool"
        }
      ],
      "payable": false,
      "stateMutability": "nonpayable",
      "type": "function"
    },
    {
      "constant": true,
      "inputs": [
        {
          "name": "",
          "type": "address"
        }
      ],
      "name": "tokenBalance",
      "outputs": [
        {
          "name": "total",
          "type": "uint256"
        },
        {
          "name": "balance",
          "type": "uint256"
        }
      ],
      "payable": false,
      "stateMutability": "view",
      "type": "function"
    },
    {
      "constant": false,
      "inputs": [
        {
          "name": "newOwner",
          "type": "address"
        }
      ],
      "name": "transferOwnership",
      "outputs": [],
      "payable": false,
      "stateMutability": "nonpayable",
      "type": "function"
    },
    {
      "inputs": [
        {
          "name": "_as",
          "type": "address[]"
        },
        {
          "name": "_bs",
          "type": "uint256[]"
        }
      ],
      "payable": false,
      "stateMutability": "nonpayable",
      "type": "constructor"
    },
    {
      "payable": true,
      "stateMutability": "payable",
      "type": "fallback"
    },
    {
      "anonymous": false,
      "inputs": [
        {
          "indexed": true,
          "name": "_from",
          "type": "address"
        },
        {
          "indexed": true,
          "name": "_token",
          "type": "address"
        },
        {
          "indexed": false,
          "name": "_value",
          "type": "uint256"
        }
      ],
      "name": "Claimed",
      "type": "event"
    },
    {
      "anonymous": false,
      "inputs": [
        {
          "indexed": true,
          "name": "previousOwner",
          "type": "address"
        },
        {
          "indexed": true,
          "name": "newOwner",
          "type": "address"
        }
      ],
      "name": "OwnershipTransferred",
      "type": "event"
    }
  ],
  "bytecode": "0x6060604052341561000f57600080fd5b604051610d4c380380610d4c8339810160405280805182019190602001805160008054600160a060020a03191633600160a060020a031617815592019190508083511161005b57600080fd5b815183511461006957600080fd5b5060005b82518110156100ed5781818151811061008257fe5b906020019060200201516001600085848151811061009c57fe5b90602001906020020151600160a060020a031681526020810191909152604001600020805490910190558181815181106100d257fe5b9060200190602002015160048054909101905560010161006d565b600283805161010092916020019061010f565b5082516003555061019d915050565b828054828255906000526020600020908101928215610166579160200282015b828111156101665782518254600160a060020a031916600160a060020a03919091161782556020929092019160019091019061012f565b50610172929150610176565b5090565b61019a91905b80821115610172578054600160a060020a031916815560010161017c565b90565b610ba0806101ac6000396000f3006060604052600436106100ed5763ffffffff60e060020a6000350416630be4057081146100f757806317ffc3201461012e57806318160ddd1461014d5780631e83409a1461016057806334a1ca891461017f5780635339eac4146101a457806377329f35146101d65780637809f7bd146101ea5780638da5cb5b1461020f5780639d80c818146102225780639f727c2714610235578063b810fb4314610248578063c0ee0b8a1461025e578063cce0cd0c1461028d578063dab4a32b14610317578063e3d670d714610322578063e660cc0814610341578063eedc966a14610374578063f2fde38b146103ab575b6100f56103ca565b005b341561010257600080fd5b61011c600160a060020a036004358116906024351661040e565b60405190815260200160405180910390f35b341561013957600080fd5b6100f5600160a060020a036004351661042b565b341561015857600080fd5b61011c6104df565b341561016b57600080fd5b6100f5600160a060020a03600435166104e5565b341561018a57600080fd5b6100f5600160a060020a03600435811690602435166104eb565b34156101af57600080fd5b6101ba60043561066b565b604051600160a060020a03909116815260200160405180910390f35b6100f5600160a060020a0360043516610693565b34156101f557600080fd5b61011c600160a060020a03600435811690602435166106d5565b341561021a57600080fd5b6101ba6106f2565b341561022d57600080fd5b61011c610701565b341561024057600080fd5b6100f5610707565b341561025357600080fd5b6101ba60043561075a565b341561026957600080fd5b6100f560048035600160a060020a0316906024803591604435918201910135610768565b341561029857600080fd5b6102a061076d565b60405160208082528190810183818151815260200191508051906020019080838360005b838110156102dc5780820151838201526020016102c4565b50505050905090810190601f1680156103095780820380516001836020036101000a031916815260200191505b509250505060405180910390f35b34156100ed57600080fd5b341561032d57600080fd5b61011c600160a060020a03600435166107ae565b341561034c57600080fd5b610360600160a060020a03600435166107c0565b604051901515815260200160405180910390f35b341561037f57600080fd5b610393600160a060020a03600435166109e9565b60405191825260208201526040908101905180910390f35b34156103b657600080fd5b6100f5600160a060020a0360043516610a02565b60005b60055481101561040b576104036005828154811015156103e957fe5b600091825260209091200154600160a060020a03166104e5565b6001016103cd565b50565b600760209081526000928352604080842090915290825290205481565b6000805433600160a060020a0390811691161461044757600080fd5b81600160a060020a03166370a082313060006040516020015260405160e060020a63ffffffff8416028152600160a060020a039091166004820152602401602060405180830381600087803b151561049e57600080fd5b6102c65a03f115156104af57600080fd5b50505060405180516000549092506104db9150600160a060020a0384811691168363ffffffff610a9d16565b5050565b60045481565b61040b81335b600160a060020a038116600090815260016020526040812054819081908190819081901161051857600080fd5b600160a060020a038088166000818152600860209081526040808320948b1680845294825280832054938352600782528083209483529390529182205490965094508486039350831161056a57600080fd5b86600160a060020a031663a9059cbb878560006040516020015260405160e060020a63ffffffff8516028152600160a060020a0390921660048301526024820152604401602060405180830381600087803b15156105c757600080fd5b6102c65a03f115156105d857600080fd5b505050604051805192505081156106625750600160a060020a038087166000818152600760209081526040808320948a16808452948252808320899055838352600690915290819020600181018054879003905592907ff7a40077ff7a04c7e61f6f26fb13774259ddf1b6bce9ecf26a8276cdd39926839086905190815260200160405180910390a35b50505050505050565b600580548290811061067957fe5b600091825260209091200154600160a060020a0316905081565b60005b6002548110156104db576106cd826002838154811015156106b357fe5b600091825260209091200154600160a060020a03166104eb565b600101610696565b600860209081526000928352604080842090915290825290205481565b600054600160a060020a031681565b60035481565b60005433600160a060020a0390811691161461072257600080fd5b600054600160a060020a039081169030163180156108fc0290604051600060405180830381858888f19350505050151561075857fe5b565b600280548290811061067957fe5b600080fd5b610775610b22565b60408051908101604052600981527f64697374722e302e3100000000000000000000000000000000000000000000006020820152919050565b60016020526000908152604090205481565b60008054819081908190819081908190819033600160a060020a039081169116146107ea57600080fd5b600160a060020a03891660008181526006602052604080822099506370a08231913091516020015260405160e060020a63ffffffff8416028152600160a060020a039091166004820152602401602060405180830381600087803b151561085057600080fd5b6102c65a03f1151561086157600080fd5b505050604051805190509550866001015486141561088257600097506109dd565b6001870180548854880181900389559087905586039450600093508392505b6005548310156108e85760058054849081106108b957fe5b600091825260209091200154600160a060020a038a8116911614156108dd57600193505b6001909201916108a1565b8315156109345760058054600181016109018382610b34565b506000918252602090912001805473ffffffffffffffffffffffffffffffffffffffff1916600160a060020a038b161790555b600091505b6002548210156109d857600280548390811061095157fe5b6000918252602080832090910154600454600160a060020a039091168084526001909252604090922054909250860281151561098957fe5b600160a060020a03808c16600081815260076020908152604080832094881680845294825280832054938352600882528083209483529390529190912092909104019055600190910190610939565b600197505b50505050505050919050565b6006602052600090815260409020805460019091015482565b60005433600160a060020a03908116911614610a1d57600080fd5b600160a060020a0381161515610a3257600080fd5b600054600160a060020a0380831691167f8be0079c531659141344cd1fd0a4f28419497f9722a3daafe3b4186f6b6457e060405160405180910390a36000805473ffffffffffffffffffffffffffffffffffffffff1916600160a060020a0392909216919091179055565b82600160a060020a031663a9059cbb838360006040516020015260405160e060020a63ffffffff8516028152600160a060020a0390921660048301526024820152604401602060405180830381600087803b1515610afa57600080fd5b6102c65a03f11515610b0b57600080fd5b505050604051805190501515610b1d57fe5b505050565b60206040519081016040526000815290565b815481835581811511610b1d57600083815260209020610b1d918101908301610b7191905b80821115610b6d5760008155600101610b59565b5090565b905600a165627a7a723058201250cec0df7e01873f93a63dadeb22daf24854f361b0f4726dc1cdd44419b7300029",
  "source": "pragma solidity ^0.4.17;\n\nimport \"./Token.sol\";\nimport \"./utils/Version.sol\";\nimport \"./utils/HasNoEth.sol\";\nimport 'zeppelin-solidity/contracts/ownership/HasNoTokens.sol';\n\ncontract SmartDistribution is Version ,HasNoTokens,HasNoEth{\n\n    //地址期权余额\n    mapping(address => uint256) public balance;\n    //所有地址集合\n    address[] public addressList;\n    uint256 public addressCount;\n\n    //期权总数\n    uint256 public totalSupply;\n    //支付的所有token\n    Token[] public supportTokens;\n    //token余额和总数\n    mapping(address => TokenBalance) public tokenBalance;\n\n\n\n    //地址期权余额\n    mapping(address => mapping(address => uint256)) public alreadSendBalance;\n    mapping(address => mapping(address => uint256)) public distrBalance;\n\n    event Claimed(\n            address indexed _from,\n            address indexed _token,\n            uint256 _value\n        );\n\n\n    struct TokenBalance {\n        uint256 total;\n        uint256 balance;\n    }\n\n    function SmartDistribution(address[] _as, uint256[] _bs) public {\n        require(_as.length > 0);\n        require(_as.length == _bs.length);\n        for (uint i = 0; i < _as.length; i++) {\n            balance[_as[i]] += _bs[i];\n            totalSupply += _bs[i];\n        }\n        addressList = _as;\n        addressCount = _as.length;\n    }\n\n\n    function blockVersion() constant public returns (string version){\n        version=\"distr.0.1\";\n    }\n\n\n    function support(Token t) public onlyOwner returns (bool) {\n        TokenBalance storage bal = tokenBalance[t];\n        uint256 nowBalance = t.balanceOf(this);\n        if(nowBalance == bal.balance){\n            return false;\n        }\n        uint256 received = nowBalance - bal.balance;\n        bal.total = bal.total + nowBalance - bal.balance;\n        bal.balance = nowBalance;\n        bool exists = false;\n        for (uint j = 0; j < supportTokens.length; j++) {\n            if(t == supportTokens[j]){\n              exists = true;\n            }\n        }\n        if(!exists){\n            supportTokens.push(t);\n        }\n\n        for (uint i = 0; i < addressList.length; i++) {\n            address ads = addressList[i];\n            distrBalance[t][ads] = alreadSendBalance[t][ads]+((received*balance[ads])/totalSupply);\n        }\n        return true;\n    }\n\n    function claim(Token token) public {\n        claimTo(token, msg.sender);\n    }\n\n    function claimTo(Token token, address ads) public {\n        require(balance[ads] > 0);\n        uint256 distr = distrBalance[token][ads];\n        uint256 alredSend = alreadSendBalance[token][ads];\n        uint256 val = distr-alredSend;\n        require(val > 0);\n        bool success = token.transfer(ads,val);\n        if(success){\n           alreadSendBalance[token][ads]=distr;\n\n           TokenBalance storage bal = tokenBalance[token];\n           bal.balance-=val;\n           Claimed(ads,token,val);\n        }\n\n    }\n\n\n    function() payable public {\n      claimImpl();\n    }\n\n    function claimImpl() public{\n      for (uint i = 0; i < supportTokens.length; i++) {\n          claim(supportTokens[i]);\n      }\n    }\n\n    function claimAll(Token token) payable public {\n        for (uint i = 0; i < addressList.length; i++) {\n            claimTo(token, addressList[i]);\n        }\n\n    }\n\n}\n",
  "sourcePath": "/Users/yanghang/Workspace/eth/workspace/solidity/simpleToken/contracts/SmartDistribution.sol",
  "compiler": {
    "name": "solc",
    "version": "0.4.18+commit.9cf6e910.Emscripten.clang"
  },
  "schemaVersion": "1.0.1",
  "updatedAt": "2018-03-01T18:22:32.810Z"
}