{
  "contractName": "SmartDistribution",
  "abi": [
    {
      "constant": true,
      "inputs": [
        {
          "name": "",
          "type": "address"
        },
        {
          "name": "",
          "type": "address"
        }
      ],
      "name": "alreadSendBalance",
      "outputs": [
        {
          "name": "",
          "type": "uint256"
        }
      ],
      "payable": false,
      "stateMutability": "view",
      "type": "function"
    },
    {
      "constant": true,
      "inputs": [],
      "name": "totalSupply",
      "outputs": [
        {
          "name": "",
          "type": "uint256"
        }
      ],
      "payable": false,
      "stateMutability": "view",
      "type": "function"
    },
    {
      "constant": false,
      "inputs": [
        {
          "name": "token",
          "type": "address"
        }
      ],
      "name": "claim",
      "outputs": [],
      "payable": false,
      "stateMutability": "nonpayable",
      "type": "function"
    },
    {
      "constant": false,
      "inputs": [
        {
          "name": "token",
          "type": "address"
        },
        {
          "name": "ads",
          "type": "address"
        }
      ],
      "name": "claimTo",
      "outputs": [],
      "payable": false,
      "stateMutability": "nonpayable",
      "type": "function"
    },
    {
      "constant": true,
      "inputs": [
        {
          "name": "",
          "type": "uint256"
        }
      ],
      "name": "supportTokens",
      "outputs": [
        {
          "name": "",
          "type": "address"
        }
      ],
      "payable": false,
      "stateMutability": "view",
      "type": "function"
    },
    {
      "constant": true,
      "inputs": [
        {
          "name": "",
          "type": "address"
        },
        {
          "name": "",
          "type": "address"
        }
      ],
      "name": "distrBalance",
      "outputs": [
        {
          "name": "",
          "type": "uint256"
        }
      ],
      "payable": false,
      "stateMutability": "view",
      "type": "function"
    },
    {
      "constant": true,
      "inputs": [],
      "name": "addressCount",
      "outputs": [
        {
          "name": "",
          "type": "uint256"
        }
      ],
      "payable": false,
      "stateMutability": "view",
      "type": "function"
    },
    {
      "constant": true,
      "inputs": [
        {
          "name": "",
          "type": "uint256"
        }
      ],
      "name": "addressList",
      "outputs": [
        {
          "name": "",
          "type": "address"
        }
      ],
      "payable": false,
      "stateMutability": "view",
      "type": "function"
    },
    {
      "constant": true,
      "inputs": [],
      "name": "blockVersion",
      "outputs": [
        {
          "name": "version",
          "type": "string"
        }
      ],
      "payable": false,
      "stateMutability": "view",
      "type": "function"
    },
    {
      "constant": false,
      "inputs": [],
      "name": "claimAll",
      "outputs": [],
      "payable": false,
      "stateMutability": "nonpayable",
      "type": "function"
    },
    {
      "constant": true,
      "inputs": [
        {
          "name": "",
          "type": "address"
        }
      ],
      "name": "balance",
      "outputs": [
        {
          "name": "",
          "type": "uint256"
        }
      ],
      "payable": false,
      "stateMutability": "view",
      "type": "function"
    },
    {
      "constant": false,
      "inputs": [
        {
          "name": "t",
          "type": "address"
        }
      ],
      "name": "support",
      "outputs": [
        {
          "name": "",
          "type": "bool"
        }
      ],
      "payable": false,
      "stateMutability": "nonpayable",
      "type": "function"
    },
    {
      "constant": true,
      "inputs": [
        {
          "name": "",
          "type": "address"
        }
      ],
      "name": "tokenBalance",
      "outputs": [
        {
          "name": "total",
          "type": "uint256"
        },
        {
          "name": "balance",
          "type": "uint256"
        }
      ],
      "payable": false,
      "stateMutability": "view",
      "type": "function"
    },
    {
      "constant": true,
      "inputs": [
        {
          "name": "sen",
          "type": "address"
        }
      ],
      "name": "isMaster",
      "outputs": [
        {
          "name": "",
          "type": "bool"
        }
      ],
      "payable": false,
      "stateMutability": "view",
      "type": "function"
    },
    {
      "inputs": [
        {
          "name": "_as",
          "type": "address[]"
        },
        {
          "name": "_bs",
          "type": "uint256[]"
        }
      ],
      "payable": false,
      "stateMutability": "nonpayable",
      "type": "constructor"
    },
    {
      "payable": true,
      "stateMutability": "payable",
      "type": "fallback"
    }
  ],
  "bytecode": "0x606060405234156200001057600080fd5b604051620011cf380380620011cf833981016040528080518201919060200180518201919050506000336000806101000a81548173ffffffffffffffffffffffffffffffffffffffff021916908373ffffffffffffffffffffffffffffffffffffffff160217905550600083511115156200008a57600080fd5b815183511415156200009b57600080fd5b600090505b82518110156200015d578181815181101515620000b957fe5b90602001906020020151600160008584815181101515620000d657fe5b9060200190602002015173ffffffffffffffffffffffffffffffffffffffff1673ffffffffffffffffffffffffffffffffffffffff1681526020019081526020016000206000828254019250508190555081818151811015156200013657fe5b906020019060200201516004600082825401925050819055508080600101915050620000a0565b82600290805190602001906200017592919062000187565b5082516003819055505050506200025c565b82805482825590600052602060002090810192821562000203579160200282015b82811115620002025782518260006101000a81548173ffffffffffffffffffffffffffffffffffffffff021916908373ffffffffffffffffffffffffffffffffffffffff16021790555091602001919060010190620001a8565b5b50905062000212919062000216565b5090565b6200025991905b808211156200025557600081816101000a81549073ffffffffffffffffffffffffffffffffffffffff0219169055506001016200021d565b5090565b90565b610f63806200026c6000396000f3006060604052600436106100d0576000357c0100000000000000000000000000000000000000000000000000000000900463ffffffff1680630be405701461013657806318160ddd146101a25780631e83409a146101cb57806334a1ca89146102045780635339eac41461025c5780637809f7bd146102bf5780639d80c8181461032b578063b810fb4314610354578063cce0cd0c146103b7578063d1058e5914610445578063e3d670d71461045a578063e660cc08146104a7578063eedc966a146104f8578063f720f80b1461054c575b60008090505b600580549050811015610133576101266005828154811015156100f557fe5b906000526020600020900160009054906101000a900473ffffffffffffffffffffffffffffffffffffffff1661059d565b80806001019150506100d6565b50005b341561014157600080fd5b61018c600480803573ffffffffffffffffffffffffffffffffffffffff1690602001909190803573ffffffffffffffffffffffffffffffffffffffff169060200190919050506105aa565b6040518082815260200191505060405180910390f35b34156101ad57600080fd5b6101b56105cf565b6040518082815260200191505060405180910390f35b34156101d657600080fd5b610202600480803573ffffffffffffffffffffffffffffffffffffffff1690602001909190505061059d565b005b341561020f57600080fd5b61025a600480803573ffffffffffffffffffffffffffffffffffffffff1690602001909190803573ffffffffffffffffffffffffffffffffffffffff169060200190919050506105d5565b005b341561026757600080fd5b61027d6004808035906020019091905050610893565b604051808273ffffffffffffffffffffffffffffffffffffffff1673ffffffffffffffffffffffffffffffffffffffff16815260200191505060405180910390f35b34156102ca57600080fd5b610315600480803573ffffffffffffffffffffffffffffffffffffffff1690602001909190803573ffffffffffffffffffffffffffffffffffffffff169060200190919050506108d2565b6040518082815260200191505060405180910390f35b341561033657600080fd5b61033e6108f7565b6040518082815260200191505060405180910390f35b341561035f57600080fd5b61037560048080359060200190919050506108fd565b604051808273ffffffffffffffffffffffffffffffffffffffff1673ffffffffffffffffffffffffffffffffffffffff16815260200191505060405180910390f35b34156103c257600080fd5b6103ca61093c565b6040518080602001828103825283818151815260200191508051906020019080838360005b8381101561040a5780820151818401526020810190506103ef565b50505050905090810190601f1680156104375780820380516001836020036101000a031916815260200191505b509250505060405180910390f35b341561045057600080fd5b61045861097f565b005b341561046557600080fd5b610491600480803573ffffffffffffffffffffffffffffffffffffffff16906020019091905050610a42565b6040518082815260200191505060405180910390f35b34156104b257600080fd5b6104de600480803573ffffffffffffffffffffffffffffffffffffffff16906020019091905050610a5a565b604051808215151515815260200191505060405180910390f35b341561050357600080fd5b61052f600480803573ffffffffffffffffffffffffffffffffffffffff16906020019091905050610e55565b604051808381526020018281526020019250505060405180910390f35b341561055757600080fd5b610583600480803573ffffffffffffffffffffffffffffffffffffffff16906020019091905050610e79565b604051808215151515815260200191505060405180910390f35b6105a781336105d5565b50565b6007602052816000526040600020602052806000526040600020600091509150505481565b60045481565b6000806000806000600160008773ffffffffffffffffffffffffffffffffffffffff1673ffffffffffffffffffffffffffffffffffffffff1681526020019081526020016000205411151561062957600080fd5b600860008773ffffffffffffffffffffffffffffffffffffffff1673ffffffffffffffffffffffffffffffffffffffff16815260200190815260200160002060008673ffffffffffffffffffffffffffffffffffffffff1673ffffffffffffffffffffffffffffffffffffffff168152602001908152602001600020549350600760008773ffffffffffffffffffffffffffffffffffffffff1673ffffffffffffffffffffffffffffffffffffffff16815260200190815260200160002060008673ffffffffffffffffffffffffffffffffffffffff1673ffffffffffffffffffffffffffffffffffffffff168152602001908152602001600020549250828403915060008211151561073b57600080fd5b8573ffffffffffffffffffffffffffffffffffffffff1663a9059cbb86846000604051602001526040518363ffffffff167c0100000000000000000000000000000000000000000000000000000000028152600401808373ffffffffffffffffffffffffffffffffffffffff1673ffffffffffffffffffffffffffffffffffffffff16815260200182815260200192505050602060405180830381600087803b15156107e657600080fd5b6102c65a03f115156107f757600080fd5b505050604051805190509050801561088b5783600760008873ffffffffffffffffffffffffffffffffffffffff1673ffffffffffffffffffffffffffffffffffffffff16815260200190815260200160002060008773ffffffffffffffffffffffffffffffffffffffff1673ffffffffffffffffffffffffffffffffffffffff168152602001908152602001600020819055505b505050505050565b6005818154811015156108a257fe5b90600052602060002090016000915054906101000a900473ffffffffffffffffffffffffffffffffffffffff1681565b6008602052816000526040600020602052806000526040600020600091509150505481565b60035481565b60028181548110151561090c57fe5b90600052602060002090016000915054906101000a900473ffffffffffffffffffffffffffffffffffffffff1681565b610944610ed2565b6040805190810160405280600981526020017f64697374722e302e310000000000000000000000000000000000000000000000815250905090565b600080600091505b600280549050821015610a3e57600090505b600580549050811015610a3157610a246005828154811015156109b857fe5b906000526020600020900160009054906101000a900473ffffffffffffffffffffffffffffffffffffffff166002848154811015156109f357fe5b906000526020600020900160009054906101000a900473ffffffffffffffffffffffffffffffffffffffff166105d5565b8080600101915050610999565b8180600101925050610987565b5050565b60016020528060005260406000206000915090505481565b600080600080600080600080600660008a73ffffffffffffffffffffffffffffffffffffffff1673ffffffffffffffffffffffffffffffffffffffff16815260200190815260200160002096508873ffffffffffffffffffffffffffffffffffffffff166370a08231306000604051602001526040518263ffffffff167c0100000000000000000000000000000000000000000000000000000000028152600401808273ffffffffffffffffffffffffffffffffffffffff1673ffffffffffffffffffffffffffffffffffffffff168152602001915050602060405180830381600087803b1515610b4a57600080fd5b6102c65a03f11515610b5b57600080fd5b5050506040518051905095508660010154861415610b7c5760009750610e49565b86600101548603945086600101548688600001540103876000018190555060009350600092505b600580549050831015610c3057600583815481101515610bbf57fe5b906000526020600020900160009054906101000a900473ffffffffffffffffffffffffffffffffffffffff1673ffffffffffffffffffffffffffffffffffffffff168973ffffffffffffffffffffffffffffffffffffffff161415610c2357600193505b8280600101935050610ba3565b831515610c9b5760058054806001018281610c4b9190610ee6565b916000526020600020900160008b909190916101000a81548173ffffffffffffffffffffffffffffffffffffffff021916908373ffffffffffffffffffffffffffffffffffffffff160217905550505b600091505b600280549050821015610e4457600282815481101515610cbc57fe5b906000526020600020900160009054906101000a900473ffffffffffffffffffffffffffffffffffffffff169050600454600160008373ffffffffffffffffffffffffffffffffffffffff1673ffffffffffffffffffffffffffffffffffffffff168152602001908152602001600020548602811515610d3857fe5b04600760008b73ffffffffffffffffffffffffffffffffffffffff1673ffffffffffffffffffffffffffffffffffffffff16815260200190815260200160002060008373ffffffffffffffffffffffffffffffffffffffff1673ffffffffffffffffffffffffffffffffffffffff1681526020019081526020016000205401600860008b73ffffffffffffffffffffffffffffffffffffffff1673ffffffffffffffffffffffffffffffffffffffff16815260200190815260200160002060008373ffffffffffffffffffffffffffffffffffffffff1673ffffffffffffffffffffffffffffffffffffffff168152602001908152602001600020819055508180600101925050610ca0565b600197505b50505050505050919050565b60066020528060005260406000206000915090508060000154908060010154905082565b60008060009054906101000a900473ffffffffffffffffffffffffffffffffffffffff1673ffffffffffffffffffffffffffffffffffffffff168273ffffffffffffffffffffffffffffffffffffffff16149050919050565b602060405190810160405280600081525090565b815481835581811511610f0d57818360005260206000209182019101610f0c9190610f12565b5b505050565b610f3491905b80821115610f30576000816000905550600101610f18565b5090565b905600a165627a7a7230582061cfb434982617b7663ae199ce7e818612b1e3641b7d4ff47e1fcf5f85bd76fa0029",
  "source": "pragma solidity ^0.4.17;\n\nimport \"./Token.sol\";\nimport \"./Version.sol\";\nimport \"./owned.sol\";\n\ncontract SmartDistribution is Version ,owned{\n\n    //地址期权余额\n    mapping(address => uint256) public balance;\n    //所有地址集合\n    address[] public addressList;\n    uint256 public addressCount;\n\n    //期权总数\n    uint256 public totalSupply;\n    //支付的所有token\n    Token[] public supportTokens;\n    //token余额和总数\n    mapping(address => TokenBalance) public tokenBalance;\n\n\n\n    //地址期权余额\n    mapping(address => mapping(address => uint256)) public alreadSendBalance;\n    mapping(address => mapping(address => uint256)) public distrBalance;\n\n    struct TokenBalance {\n        uint256 total;\n        uint256 balance;\n    }\n\n    function SmartDistribution(address[] _as, uint256[] _bs) public {\n        require(_as.length > 0);\n        require(_as.length == _bs.length);\n        for (uint i = 0; i < _as.length; i++) {\n            balance[_as[i]] += _bs[i];\n            totalSupply += _bs[i];\n        }\n        addressList = _as;\n        addressCount = _as.length;\n    }\n\n\n    function blockVersion() constant public returns (string version){\n        version=\"distr.0.1\";\n    }\n\n\n    function support(Token t) public returns (bool) {\n        TokenBalance storage bal = tokenBalance[t];\n        uint256 nowBalance = t.balanceOf(this);\n        if(nowBalance == bal.balance){\n            return false;\n        }\n        uint256 received = nowBalance - bal.balance;\n        bal.total = bal.total + nowBalance - bal.balance;\n        bool exists = false;\n        for (uint j = 0; j < supportTokens.length; j++) {\n            if(t == supportTokens[j]){\n              exists = true;\n            }\n        }\n        if(!exists){\n            supportTokens.push(t);\n        }\n\n        for (uint i = 0; i < addressList.length; i++) {\n            address ads = addressList[i];\n            distrBalance[t][ads] = alreadSendBalance[t][ads]+((received*balance[ads])/totalSupply);\n        }\n        return true;\n    }\n\n    function claim(Token token) public {\n        claimTo(token, msg.sender);\n    }\n\n    function claimTo(Token token, address ads) public {\n        require(balance[ads] > 0);\n        uint256 distr = distrBalance[token][ads];\n        uint256 alredSend = alreadSendBalance[token][ads];\n        uint256 val = distr-alredSend;\n        require(val > 0);\n        bool success = token.transfer(ads,val);\n        if(success){\n           alreadSendBalance[token][ads]=distr;\n        }\n\n    }\n\n\n    function() payable public {\n        for (uint i = 0; i < supportTokens.length; i++) {\n            claim(supportTokens[i]);\n        }\n    }\n\n    function claimAll() public {\n        for (uint i = 0; i < addressList.length; i++) {\n            for (uint j = 0; j < supportTokens.length; j++) {\n                claimTo(supportTokens[j], addressList[i]);\n            }\n        }\n\n    }\n\n}\n",
  "sourcePath": "/Users/yanghang/Workspace/eth/workspace/solidity/simpleToken/contracts/SmartDistribution.sol",
  "compiler": {
    "name": "solc",
    "version": "0.4.18+commit.9cf6e910.Emscripten.clang"
  },
  "schemaVersion": "1.0.1",
  "updatedAt": "2018-02-14T16:01:38.008Z"
}