{
  "contractName": "SmartDistribution",
  "abi": [
    {
      "constant": true,
      "inputs": [
        {
          "name": "",
          "type": "address"
        },
        {
          "name": "",
          "type": "address"
        }
      ],
      "name": "alreadSendBalance",
      "outputs": [
        {
          "name": "",
          "type": "uint256"
        }
      ],
      "payable": false,
      "stateMutability": "view",
      "type": "function"
    },
    {
      "constant": true,
      "inputs": [],
      "name": "totalSupply",
      "outputs": [
        {
          "name": "",
          "type": "uint256"
        }
      ],
      "payable": false,
      "stateMutability": "view",
      "type": "function"
    },
    {
      "constant": false,
      "inputs": [
        {
          "name": "token",
          "type": "address"
        }
      ],
      "name": "claim",
      "outputs": [],
      "payable": false,
      "stateMutability": "nonpayable",
      "type": "function"
    },
    {
      "constant": false,
      "inputs": [
        {
          "name": "token",
          "type": "address"
        },
        {
          "name": "ads",
          "type": "address"
        }
      ],
      "name": "claimTo",
      "outputs": [],
      "payable": false,
      "stateMutability": "nonpayable",
      "type": "function"
    },
    {
      "constant": true,
      "inputs": [
        {
          "name": "",
          "type": "uint256"
        }
      ],
      "name": "supportTokens",
      "outputs": [
        {
          "name": "",
          "type": "address"
        }
      ],
      "payable": false,
      "stateMutability": "view",
      "type": "function"
    },
    {
      "constant": false,
      "inputs": [
        {
          "name": "token",
          "type": "address"
        }
      ],
      "name": "claimAll",
      "outputs": [],
      "payable": true,
      "stateMutability": "payable",
      "type": "function"
    },
    {
      "constant": true,
      "inputs": [
        {
          "name": "",
          "type": "address"
        },
        {
          "name": "",
          "type": "address"
        }
      ],
      "name": "distrBalance",
      "outputs": [
        {
          "name": "",
          "type": "uint256"
        }
      ],
      "payable": false,
      "stateMutability": "view",
      "type": "function"
    },
    {
      "constant": true,
      "inputs": [],
      "name": "owner",
      "outputs": [
        {
          "name": "",
          "type": "address"
        }
      ],
      "payable": false,
      "stateMutability": "view",
      "type": "function"
    },
    {
      "constant": true,
      "inputs": [],
      "name": "addressCount",
      "outputs": [
        {
          "name": "",
          "type": "uint256"
        }
      ],
      "payable": false,
      "stateMutability": "view",
      "type": "function"
    },
    {
      "constant": true,
      "inputs": [
        {
          "name": "",
          "type": "uint256"
        }
      ],
      "name": "addressList",
      "outputs": [
        {
          "name": "",
          "type": "address"
        }
      ],
      "payable": false,
      "stateMutability": "view",
      "type": "function"
    },
    {
      "constant": true,
      "inputs": [],
      "name": "blockVersion",
      "outputs": [
        {
          "name": "version",
          "type": "string"
        }
      ],
      "payable": false,
      "stateMutability": "view",
      "type": "function"
    },
    {
      "constant": false,
      "inputs": [],
      "name": "claimImpl",
      "outputs": [],
      "payable": false,
      "stateMutability": "nonpayable",
      "type": "function"
    },
    {
      "constant": true,
      "inputs": [
        {
          "name": "",
          "type": "address"
        }
      ],
      "name": "balance",
      "outputs": [
        {
          "name": "",
          "type": "uint256"
        }
      ],
      "payable": false,
      "stateMutability": "view",
      "type": "function"
    },
    {
      "constant": false,
      "inputs": [
        {
          "name": "t",
          "type": "address"
        }
      ],
      "name": "support",
      "outputs": [
        {
          "name": "",
          "type": "bool"
        }
      ],
      "payable": false,
      "stateMutability": "nonpayable",
      "type": "function"
    },
    {
      "constant": true,
      "inputs": [
        {
          "name": "",
          "type": "address"
        }
      ],
      "name": "tokenBalance",
      "outputs": [
        {
          "name": "total",
          "type": "uint256"
        },
        {
          "name": "balance",
          "type": "uint256"
        }
      ],
      "payable": false,
      "stateMutability": "view",
      "type": "function"
    },
    {
      "constant": false,
      "inputs": [
        {
          "name": "newOwner",
          "type": "address"
        }
      ],
      "name": "transferOwnership",
      "outputs": [],
      "payable": false,
      "stateMutability": "nonpayable",
      "type": "function"
    },
    {
      "inputs": [
        {
          "name": "_as",
          "type": "address[]"
        },
        {
          "name": "_bs",
          "type": "uint256[]"
        }
      ],
      "payable": false,
      "stateMutability": "nonpayable",
      "type": "constructor"
    },
    {
      "payable": true,
      "stateMutability": "payable",
      "type": "fallback"
    },
    {
      "anonymous": false,
      "inputs": [
        {
          "indexed": true,
          "name": "_from",
          "type": "address"
        },
        {
          "indexed": true,
          "name": "_token",
          "type": "address"
        },
        {
          "indexed": false,
          "name": "_value",
          "type": "uint256"
        }
      ],
      "name": "Claimed",
      "type": "event"
    },
    {
      "anonymous": false,
      "inputs": [
        {
          "indexed": true,
          "name": "previousOwner",
          "type": "address"
        },
        {
          "indexed": true,
          "name": "newOwner",
          "type": "address"
        }
      ],
      "name": "OwnershipTransferred",
      "type": "event"
    }
  ],
  "bytecode": "0x6060604052341561000f57600080fd5b604051610b47380380610b478339810160405280805182019190602001805160008054600160a060020a03191633600160a060020a031617815592019190508083511161005b57600080fd5b815183511461006957600080fd5b5060005b82518110156100ed5781818151811061008257fe5b906020019060200201516001600085848151811061009c57fe5b90602001906020020151600160a060020a031681526020810191909152604001600020805490910190558181815181106100d257fe5b9060200190602002015160048054909101905560010161006d565b600283805161010092916020019061010f565b5082516003555061019d915050565b828054828255906000526020600020908101928215610166579160200282015b828111156101665782518254600160a060020a031916600160a060020a03919091161782556020929092019160019091019061012f565b50610172929150610176565b5090565b61019a91905b80821115610172578054600160a060020a031916815560010161017c565b90565b61099b806101ac6000396000f3006060604052600436106100cc5763ffffffff60e060020a6000350416630be4057081146100d657806318160ddd1461010d5780631e83409a1461012057806334a1ca891461013f5780635339eac41461016457806377329f35146101965780637809f7bd146101aa5780638da5cb5b146101cf5780639d80c818146101e2578063b810fb43146101f5578063cce0cd0c1461020b578063dab4a32b14610295578063e3d670d7146102a0578063e660cc08146102bf578063eedc966a146102f2578063f2fde38b14610329575b6100d4610348565b005b34156100e157600080fd5b6100fb600160a060020a036004358116906024351661038c565b60405190815260200160405180910390f35b341561011857600080fd5b6100fb6103a9565b341561012b57600080fd5b6100d4600160a060020a03600435166103af565b341561014a57600080fd5b6100d4600160a060020a03600435811690602435166103b5565b341561016f57600080fd5b61017a600435610535565b604051600160a060020a03909116815260200160405180910390f35b6100d4600160a060020a036004351661055d565b34156101b557600080fd5b6100fb600160a060020a03600435811690602435166105a3565b34156101da57600080fd5b61017a6105c0565b34156101ed57600080fd5b6100fb6105cf565b341561020057600080fd5b61017a6004356105d5565b341561021657600080fd5b61021e6105e3565b60405160208082528190810183818151815260200191508051906020019080838360005b8381101561025a578082015183820152602001610242565b50505050905090810190601f1680156102875780820380516001836020036101000a031916815260200191505b509250505060405180910390f35b34156100cc57600080fd5b34156102ab57600080fd5b6100fb600160a060020a0360043516610624565b34156102ca57600080fd5b6102de600160a060020a0360043516610636565b604051901515815260200160405180910390f35b34156102fd57600080fd5b610311600160a060020a036004351661085f565b60405191825260208201526040908101905180910390f35b341561033457600080fd5b6100d4600160a060020a0360043516610878565b60005b6005548110156103895761038160058281548110151561036757fe5b600091825260209091200154600160a060020a03166103af565b60010161034b565b50565b600760209081526000928352604080842090915290825290205481565b60045481565b61038981335b600160a060020a03811660009081526001602052604081205481908190819081908190116103e257600080fd5b600160a060020a038088166000818152600860209081526040808320948b1680845294825280832054938352600782528083209483529390529182205490965094508486039350831161043457600080fd5b86600160a060020a031663a9059cbb878560006040516020015260405160e060020a63ffffffff8516028152600160a060020a0390921660048301526024820152604401602060405180830381600087803b151561049157600080fd5b6102c65a03f115156104a257600080fd5b5050506040518051925050811561052c5750600160a060020a038087166000818152600760209081526040808320948a16808452948252808320899055838352600690915290819020600181018054879003905592907ff7a40077ff7a04c7e61f6f26fb13774259ddf1b6bce9ecf26a8276cdd39926839086905190815260200160405180910390a35b50505050505050565b600580548290811061054357fe5b600091825260209091200154600160a060020a0316905081565b60005b60025481101561059f576105978260028381548110151561057d57fe5b600091825260209091200154600160a060020a03166103b5565b600101610560565b5050565b600860209081526000928352604080842090915290825290205481565b600054600160a060020a031681565b60035481565b600280548290811061054357fe5b6105eb610913565b60408051908101604052600981527f64697374722e302e3100000000000000000000000000000000000000000000006020820152919050565b60016020526000908152604090205481565b60008054819081908190819081908190819033600160a060020a0390811691161461066057600080fd5b600160a060020a03891660008181526006602052604080822099506370a08231913091516020015260405160e060020a63ffffffff8416028152600160a060020a039091166004820152602401602060405180830381600087803b15156106c657600080fd5b6102c65a03f115156106d757600080fd5b50505060405180519050955086600101548614156106f85760009750610853565b6001870180548854880181900389559087905586039450600093508392505b60055483101561075e57600580548490811061072f57fe5b600091825260209091200154600160a060020a038a81169116141561075357600193505b600190920191610717565b8315156107aa5760058054600181016107778382610925565b506000918252602090912001805473ffffffffffffffffffffffffffffffffffffffff1916600160a060020a038b161790555b600091505b60025482101561084e5760028054839081106107c757fe5b6000918252602080832090910154600454600160a060020a03909116808452600190925260409092205490925086028115156107ff57fe5b600160a060020a03808c166000818152600760209081526040808320948816808452948252808320549383526008825280832094835293905291909120929091040190556001909101906107af565b600197505b50505050505050919050565b6006602052600090815260409020805460019091015482565b60005433600160a060020a0390811691161461089357600080fd5b600160a060020a03811615156108a857600080fd5b600054600160a060020a0380831691167f8be0079c531659141344cd1fd0a4f28419497f9722a3daafe3b4186f6b6457e060405160405180910390a36000805473ffffffffffffffffffffffffffffffffffffffff1916600160a060020a0392909216919091179055565b60206040519081016040526000815290565b8154818355818115116109495760008381526020902061094991810190830161094e565b505050565b61096c91905b808211156109685760008155600101610954565b5090565b905600a165627a7a7230582055260573d858ff2dcbdc8a8c74bdf45faf2961d848c885cd546384bcf7c3e3120029",
  "source": "pragma solidity ^0.4.17;\n\nimport \"./Token.sol\";\nimport \"./Version.sol\";\nimport 'zeppelin-solidity/contracts/ownership/Ownable.sol';\n\ncontract SmartDistribution is Version ,Ownable{\n\n    //地址期权余额\n    mapping(address => uint256) public balance;\n    //所有地址集合\n    address[] public addressList;\n    uint256 public addressCount;\n\n    //期权总数\n    uint256 public totalSupply;\n    //支付的所有token\n    Token[] public supportTokens;\n    //token余额和总数\n    mapping(address => TokenBalance) public tokenBalance;\n\n\n\n    //地址期权余额\n    mapping(address => mapping(address => uint256)) public alreadSendBalance;\n    mapping(address => mapping(address => uint256)) public distrBalance;\n\n    event Claimed(\n            address indexed _from,\n            address indexed _token,\n            uint256 _value\n        );\n\n\n    struct TokenBalance {\n        uint256 total;\n        uint256 balance;\n    }\n\n    function SmartDistribution(address[] _as, uint256[] _bs) public {\n        require(_as.length > 0);\n        require(_as.length == _bs.length);\n        for (uint i = 0; i < _as.length; i++) {\n            balance[_as[i]] += _bs[i];\n            totalSupply += _bs[i];\n        }\n        addressList = _as;\n        addressCount = _as.length;\n    }\n\n\n    function blockVersion() constant public returns (string version){\n        version=\"distr.0.1\";\n    }\n\n\n    function support(Token t) public onlyOwner returns (bool) {\n        TokenBalance storage bal = tokenBalance[t];\n        uint256 nowBalance = t.balanceOf(this);\n        if(nowBalance == bal.balance){\n            return false;\n        }\n        uint256 received = nowBalance - bal.balance;\n        bal.total = bal.total + nowBalance - bal.balance;\n        bal.balance = nowBalance;\n        bool exists = false;\n        for (uint j = 0; j < supportTokens.length; j++) {\n            if(t == supportTokens[j]){\n              exists = true;\n            }\n        }\n        if(!exists){\n            supportTokens.push(t);\n        }\n\n        for (uint i = 0; i < addressList.length; i++) {\n            address ads = addressList[i];\n            distrBalance[t][ads] = alreadSendBalance[t][ads]+((received*balance[ads])/totalSupply);\n        }\n        return true;\n    }\n\n    function claim(Token token) public {\n        claimTo(token, msg.sender);\n    }\n\n    function claimTo(Token token, address ads) public {\n        require(balance[ads] > 0);\n        uint256 distr = distrBalance[token][ads];\n        uint256 alredSend = alreadSendBalance[token][ads];\n        uint256 val = distr-alredSend;\n        require(val > 0);\n        bool success = token.transfer(ads,val);\n        if(success){\n           alreadSendBalance[token][ads]=distr;\n\n           TokenBalance storage bal = tokenBalance[token];\n           bal.balance-=val;\n           Claimed(ads,token,val);\n        }\n\n    }\n\n\n    function() payable public {\n      claimImpl();\n    }\n\n    function claimImpl() public{\n      for (uint i = 0; i < supportTokens.length; i++) {\n          claim(supportTokens[i]);\n      }\n    }\n\n    function claimAll(Token token) payable public {\n        for (uint i = 0; i < addressList.length; i++) {\n            claimTo(token, addressList[i]);\n        }\n\n    }\n\n}\n",
  "sourcePath": "/Users/yanghang/Workspace/eth/workspace/solidity/simpleToken/contracts/SmartDistribution.sol",
  "compiler": {
    "name": "solc",
    "version": "0.4.18+commit.9cf6e910.Emscripten.clang"
  },
  "schemaVersion": "1.0.1",
  "updatedAt": "2018-02-26T12:03:03.712Z"
}